:0200000280007C
:10000000483207208D300800853008008530080010
:1000100085300800853008008530080000000000A9
:100020000000000000000000000000008530080013
:100030008530080000000000853008008530080089
:1000400085300800853008008530080085300800BC
:1000500085300800853008008530080085300800AC
:10006000991C08008530080000000000092D0800D8
:10007000212D0800392D0800512D08000000000036
:100080000000000085300800853008008530080039
:10009000853008008530080085300800853008006C
:1000A000853008000000000085300800650A08005F
:1000B0003D0B0800150C08004D0C080085300800A9
:1000C00085300800650C0800853008008530080080
:1000D000853008008530080085300800853008002C
:1000E000853008008530080085300800B50108001B
:1000F0008530080010B5054C237833B9044B13B193
:100100000448AFF300800123237010BD6C0C07205E
:100110000000000008680800084B10B51BB1084932
:100120000848AFF300800848036803B910BD074BC7
:10013000002BFBD0BDE81040184700BF00000000B6
:10014000700C07200868080008680800000000001C
:1001500080B500AF074B9847074B084AC3F8E42027
:10016000054B074A1A61044B40F63F02C3F80021D1
:1001700000BF80BD3927080000060E4000434D50E7
:10018000007940F880B483B000AF0346FB710849A2
:1001900097F907305B09FA7902F01F02012000FA93
:1001A00002F241F8232000BF0C37BD4680BC7047E7
:1001B00000E100E080B582B000AF114B1B697B60AD
:1001C0007B68DBB2002B17D00D4BD3F830327B604D
:1001D0007B6803F40003002B0ED00A4B01221A6047
:1001E000084A7B6893600748074B98470548074BC8
:1001F0009847074B01221A6000BF0837BD4680BDF3
:1002000000400B40CC0D07203904080015020800FF
:10021000980C072080B485B000AF78607B689B693C
:10022000784A1360774B5B78FB73764B5B78BB73D4
:10023000754B01221A70754B1B78002B00D0DBE048
:10024000734B1B78DBB21946724AFB7B5354704BDD
:100250001B78DBB21A466E4B1B78DBB219466D4B2E
:100260005B5CD9B26C4B9954694B1B78DBB21A4674
:10027000674B1B78DBB21946674B5B5CD9B2674BA7
:100280009954654B1B787B73654A7B7B13707B7B32
:10029000013B0C2B00F2AF8001A252F823F000BF0B
:1002A000190308003B03080065030800BF030800AA
:1002B000CD030800DB030800E9030800A3030800DE
:1002C000B10308008703080095030800D502080061
:1002D000F7020800534B00221A70534B1B889BB245
:1002E00001339AB2504B1A80504B01221A70474B7F
:1002F00000221A7080E04B4B00221A704A4B1B8878
:100300009BB201339AB2484B1A80484B01221A70B3
:100310003E4B00221A706FE0424B00221A70424B93
:100320001B889BB201339AB23F4B1A803F4B01228C
:100330001A70364B00221A705EE0324B5A883C4BE2
:100340001A80384B00221A70374B1B889BB201333E
:100350009AB2354B1A80354B01221A702B4B002272
:100360001A7049E02F4B00221A70324B1B889BB247
:1003700001339AB22F4B1A802C4B01221A70234B57
:1003800000221A7038E0294B01221A701F4B0022FC
:100390001A7031E0254B01221A701C4B00221A7092
:1003A0002AE0224B01221A70184B00221A7023E017
:1003B0001E4B01221A70154B00221A701CE01B4BB9
:1003C00001221A70114B00221A7015E0174B0122FE
:1003D0001A700E4B00221A700EE0144B01221A7094
:1003E0000A4B00221A7007E0104B01221A70074BCB
:1003F00000221A7000E000BF00BF00BF1437BD46E6
:1004000080BC7047C00D0720930C0720880C072084
:100410008E0C0720900C0720940C0720000E07205C
:10042000C40D0720970C07208A0C0720EC0D07202D
:10043000C60D07208C0C072080B487B000AF786011
:1004400000237B617B681B68FB747B689B68FB6097
:10045000FB6803F40003002B06D0FB6803F08073F5
:10046000002B01D002237B61264AFB7C5B011344F5
:1004700003F503731B6823F060427B685A61FB68D5
:100480001B0CDBB203F00F03DAB27B689A711D4AD2
:10049000FB7C5B01134403F505731A687B689A6162
:1004A000184AFB7C5B01134403F506731A687B68EA
:1004B000DA61144AFB7C5B01134403F504731A6888
:1004C0007B689A607B689B68FB60FB6803F08073C5
:1004D000002B03D07B6943F004037B610949FB7C5B
:1004E0007A689279120402F4702242F400025B01ED
:1004F0000B4403F507731A607B6918461C37BD4629
:1005000080BC704700400B4080B485B000AF78607D
:100510007B681B68FB737B681B79002B2FD1354AE6
:10052000FB7B10335B01134400221A60314AFB7BD2
:1005300010335B011344043300221A602D4AFB7B05
:100540005B01134403F5027300221A60294AFB7B06
:100550005B01134403F5057300221A60254AFB7BF7
:100560005B01134403F5067300221A60214AFB7BEA
:100570005B01134403F5077300221A6035E01D4840
:10058000FB7B1C49FA7B103252010A44126822F4A8
:1005900070227968C97909040A4310335B01034466
:1005A0001A601449FB7B7A68D26810335B010B44F4
:1005B00004331A600F49FB7B7A6812695B010B44B4
:1005C00003F502731A600B48FB7B0A49FA7B103271
:1005D00052010A44126822F0E0627968097909063A
:1005E0000A4310335B0103441A601437BD4680BCD4
:1005F000704700BF00400B4080B58EB000AF4C4B41
:10060000BB62782387F827304A4B4B4AC3F8E42073
:10061000484A484B1B6823F0010313604549BB6AF5
:10062000DB78013B03F00702BB6A9B78013B1B01AF
:1006300003F070031A43BB6A5B78013B1B0203F4AF
:10064000E0631A43BB6A1B79013B1B0303F440536D
:100650001A4397F82730013B1B0403F4FE031343AE
:100660004B6100233B72002387F82F300BE097F893
:100670002F307B603B1D1846304B984797F82F3042
:10068000013387F82F3097F82F30072BEFD9294AFD
:10069000284B1B6843F00103136000237B63002396
:1006A0003B6305E0234B1B697B633B6B01333B637F
:1006B0007B6B03F40013002B03D13B6B204A934266
:1006C000F0D9204B01221A601E4B01221A711D4BDA
:1006D0000022DA711B4B00225A711A4B1A4ADA6057
:1006E000184B4FF400221A611648144B98472B20E0
:1006F000164B98470F4B02225A60124B00221A6089
:10070000104B03221A710F4B0122DA710D4B00229C
:100710005A710C4B0C4ADA600A4B4FF420121A61E2
:100720000848064B984700BF3837BD4680BD00BF1C
:100730001867080000400B40004E414309050800BF
:100740009F860100CC0D07200000FC1F85010800DA
:1007500080B582B000AF0346FB71184B40F64122D2
:10076000C3F88C22154B4FF4E062C3F88422134B7C
:1007700040F64122C3F8AC22104B4FF4E062C3F8BC
:10078000A422FB79012B02D0022B09D011E00B4BE4
:1007900010225A604FF080515520094B984708E0CD
:1007A000064B20225A604FF080515620044B984748
:1007B00000BF002318460837BD4680BD00400940F1
:1007C0003D2A080090B589B000AF03460A46FB7188
:1007D0001346BB710023FB61BB79DB01204A92FB0E
:1007E000F3F35A1E1F4B1046984703460C46C7E9C1
:1007F00004341D4BD7E9040198470346FB60FB799D
:10080000042B26D801A252F823F000BF21080800CB
:100810002F08080041080800470808004D08080094
:10082000FB682122F9691148114CA04712E0BB79FD
:10083000FB60FB681B2200210E480F4CA04709E01B
:10084000BB79FB6006E0BB79FB6003E0BB79FB6032
:1008500000E000BF00BF18462437BD4690BD00BF72
:1008600000BD0105B9360800853708000080084042
:1008700001100800000008405D10080080B582B03B
:1008800000AF0346FB71FB79042B26D801A252F876
:1008900023F000BFA9080800B3080800BD0808003D
:1008A000C7080800D108080000210F480F4B9847DF
:1008B00014E001210C480D4B98470FE000210C4833
:1008C0000A4B98470AE000210A48084B984705E080
:1008D00001210848054B984700E000BF00BF1846BB
:1008E0000837BD4680BD00BF0000084079130800EE
:1008F000008008400040084080B500AF0B203B4B13
:1009000098470C20394B98470D20384B98470E20BC
:10091000364B9847364B374AC3F8E420364B354AB6
:10092000C3F8E420354B334AC3F8E420344B314A52
:10093000C3F8E4202E4B4FF4C0225A662C4B314AA8
:100940005A602B4B4FF410221A67294B4FF4407218
:100950005A66274B4FF440725A66254B2A4A1A6052
:10096000234B2A4A1A61224B4FF4C0121A63204BC0
:100970004FF440425A61204B254A1A601E4B244ACC
:100980001A611D4B234A5A601B4B234A1A631A4BA8
:100990004FF080625A63194B204A1A60174B204A65
:1009A0001A61164B4FF0A0625A61144B1D4A5A63EC
:1009B000124B4FF400025A63114B41F610621A6059
:1009C0000F4B6F221A610E4B0F225A664FF00061D7
:1009D0000120154B98474FF000610020124B9847BB
:1009E00012490320104B984700BF80BDCD2F08004F
:1009F000000E0E40004F495000100E4000120E40F5
:100A000000140E404303871F04C0180004001800A0
:100A100000402008FF0018F000402006FEF18F0D76
:100A2000FEF18F00FEF10F063D2A080001000030A4
:100A300080B483B000AF0346FB71094997F90730D2
:100A40005B09FA7902F01F02012000FA02F260331A
:100A500041F8232000BF0C37BD4680BC704700BF63
:100A600000E100E080B500AF2B4B2C4AC3F8E42036
:100A70002B4B2A4AC3F8E420274B0322C3F8A020BB
:100A8000254B0C22C3F8A420254B4FF4FF72C3F86A
:100A9000A020234B4FF47F22C3F8A420214B1B68D6
:100AA0000133204A1360204B1B6801331E4A136038
:100AB0001E4B1B6801331D4A13601A4B1B683F2BEA
:100AC0000ED8154A174B1B68194951F833309363F8
:100AD000134A144B1B681649DB000B445B68936395
:100AE000104B1B683F2B11D90E4B00221A600A4A8B
:100AF0000C4B1B680E4951F833309363084A094B7D
:100B00001B680B49DB000B445B68936300210948B9
:100B1000094B984700BF80BD00140E40004F49505C
:100B200000120E40C80C0720A00C0720A80C0720BC
:100B30000000072000000840E513080080B500AF62
:100B40002B4B2C4AC3F8E4202B4B2A4AC3F8E42051
:100B5000274B0C22C3F8A020254B0322C3F8A42066
:100B6000254B4FF47F22C3F8A020234B4FF4FF7294
:100B7000C3F8A420214B1B680133204A1360204B8B
:100B80001B6801331E4A13601E4B1B6801331D4A4C
:100B900013601A4B1B683F2B0ED8154A174B1B6866
:100BA000194951F833309363134A144B1B681649A3
:100BB000DB000B445B689363104B1B683F2B11D920
:100BC0000E4B00221A600A4A0C4B1B680E4951F862
:100BD00033309363084A094B1B680B49DB000B4415
:100BE0005B68936301210948094B984700BF80BDAA
:100BF00000140E40004F495000120E40CC0C07204C
:100C0000A40C0720AC0C07200002072000000840BD
:100C1000E513080080B500AF00210848084B98474D
:100C200001210648064B9847064B00221A70022104
:100C30000248054B984700BF80BD00BF0000084038
:100C4000791308009C0C0720E513080080B500AF5D
:100C500000210248024B984700BF80BD0040084079
:100C6000E513080080B500AF2120294B9847294B98
:100C70001B680133274A1360264B1B680A2B0AD1D5
:100C8000254B1B680133244A1360224B00221A6053
:100C9000224B00221A60204B1B68052B0AD1204BE7
:100CA0001B6801331E4A13601B4B00221A601B4B4A
:100CB00001221A601A4B1B68022B0AD1194B1B68C0
:100CC0000133184A1360164B00221A60134B02229C
:100CD0001A60144B1B68052B0AD1134B1B68013398
:100CE000114A13600F4B00221A600C4B03221A604A
:100CF0000D4B1B68022B05D10B4B00221A60074BD2
:100D000004221A6000210948094B984700BF80BDA2
:100D1000310A0800B00C0720B40C0720E8110720A6
:100D2000B80C0720BC0C0720C00C0720008008402E
:100D3000E513080080B483B000AF0346FB71084997
:100D400097F907305B09FA7902F01F02012000FAD7
:100D500002F241F8232000BF0C37BD4680BC70472B
:100D600000E100E080B483B000AF0346FB710949A5
:100D700097F907305B09FA7902F01F02012000FAA7
:100D800002F2203341F8232000BF0C37BD4680BC5F
:100D9000704700BF00E100E080B483B000AF0346BD
:100DA000FB71094997F907305B09FA7902F01F02D4
:100DB000012000FA02F2603341F8232000BF0C3713
:100DC000BD4680BC704700BF00E100E080B483B046
:100DD00000AF03463960FB7197F90730002B0BDA3F
:100DE0000D49FB7903F00F03043B3A68D2B21201BC
:100DF000D2B20B441A7609E0084997F907303A68ED
:100E0000D2B21201D2B20B4483F8002300BF0C37D8
:100E1000BD4680BC704700BF00ED00E000E100E08F
:100E200080B500AF1620314B98471620304B9847BD
:100E3000002116202F4B984716202F4B984708204B
:100E40002A4B984708202A4B984700210820294B15
:100E500098470820284B984701212848284B984755
:100E60001B20224B98471B20214B984700211B2019
:100E7000204B98471B20204B98471C201B4B984722
:100E80001C201B4B984700211C201A4B98471C2004
:100E9000194B98471D20154B98471D20144B984718
:100EA00000211D20134B98471D20134B98471E20EF
:100EB0000E4B98471E200E4B984700211E200D4BCD
:100EC00098471E200C4B98472120084B984721201B
:100ED000074B984700212120064B98472120064BBD
:100EE00098472B20044B984700BF80BD650D080034
:100EF000990D0800CD0D0800350D080000080E40C2
:100F0000B114080080B400AF144B154AC3F8E420B4
:100F1000124B144AC3F88022104B124AC3F8A02285
:100F20000E4BFF229A600D4B40F64122C3F88C22F3
:100F30000A4B4FF4E062C3F88422084B40F641228A
:100F4000C3F8AC22054B4FF4E062C3F8A422034B74
:100F5000FF225A6000BFBD4680BC70470040094078
:100F6000004D57500506070080B500AF1F4B204AC3
:100F7000C3F8E4201F4B1E4AC3F8E4201E4B1C4A52
:100F8000C3F8E4201B201D4B98471C201B4B98479F
:100F90001E201A4B98471F20184B98472120174BAB
:100FA0009847124B4CF203025A60104B4CF203026A
:100FB0005A64104B4CF203025A600E4B4CF203027F
:100FC0005A640D4B4CF203025A60084B10225A62CD
:100FD000064B10225A66074B10225A62054B10220C
:100FE0005A66054B10225A6200BF80BD00000840BF
:100FF000004D49540040084000800840CD2F0800B3
:1010000080B584B000AFF860B9603B601346FB71F7
:1010100000200D4B98470023BB600C4B4CF20302A1
:101020005A603A68B968F868094B9847B968F8682F
:10103000084B98471022B968F868074B984700BFDB
:1010400018461037BD4680BD4D300800008008406E
:101050009913080059130800BD13080080B584B027
:1010600000AFF860B9603B601346FB710020104B85
:1010700098471B200F4B98474CF20202B968F8685A
:101080000D4B98470D4B4CF202025A603A68B96812
:10109000F8680B4B9847102200210848094B9847E5
:1010A000B968F868084B984700BF1037BD4680BD47
:1010B0004D300800CD2F0800211308000000084023
:1010C00099130800BD1308005913080080B584B0B7
:1010D00000AFF860B9603B601346FB710020104B15
:1010E00098471C200F4B98474CF20202B968F868E9
:1010F0000D4B98470D4B4CF202025A643A68B9689E
:10110000F8680B4B9847102201210848094B984773
:10111000B968F868084B984700BF1037BD4680BDD6
:101120004D300800CD2F08002113080000000840B2
:1011300099130800BD1308005913080080B584B046
:1011400000AFF860B9603B601346FB710020114BA3
:1011500098471D20104B98474CF20302B968F86875
:101160000E4B98470E4B4CF20302C3F884203A68AA
:10117000B968F8680B4B98471022022108480A4BBF
:101180009847B968F868094B984700BF1037BD46C3
:1011900080BD00BF4D300800CD2F0800211308008E
:1011A0000000084099130800BD13080059130800F7
:1011B00080B582B000AF0346FB71FB791846034B44
:1011C0009847002318460837BD4680BD51070800E0
:1011D00080B500AF094B9847094B9847094B984792
:1011E000094B9847094B9847094B98474FF47A7138
:1011F0000020084B984700BF80BD00BF5101080088
:10120000210E0800F9080800050F0800690F080002
:10121000F90508001912080080B582B000AF034636
:101220003960FB713B68DAB2FB7911461846034B13
:101230009847002318460837BD4680BDC5070800FB
:1012400080B582B000AF0346FB71FB791846034BB3
:101250009847002318460837BD4680BD7D08080022
:1012600080B586B000AFF860B9607A6000237B611A
:10127000FB68002B12D04FF0FF3313E00B4B1B68C1
:101280000B4A1268B96810469847BB680133BB60C7
:101290007B6901337B617B68013B7B607B68002B52
:1012A000ECDC7B6918461837BD4680BDF01107207D
:1012B000F811072080B586B000AFF860B9607A6099
:1012C00000237B61FB68012B1ED0FB68022B1BD027
:1012D000FB68032B18D04FF0FF3319E00E4B1A6850
:1012E0000E4B1868BB68591CB9601B7819469047AB
:1012F0000346002B02DA4FF0FF3309E07B6901332C
:101300007B617B68013B7B607B68002BE6D17B695E
:1013100018461837BD4680BDF4110720F811072084
:1013200080B487B000AFF860B9607A60FA68BB68D3
:101330009B0113447B617B6902221A607B694FF039
:10134000FF329A627B691B6A7B697A685A6000BFC8
:101350001C37BD4680BC704780B483B000AF786056
:1013600039607A683B689B01134405221A6000BF0C
:101370000C37BD4680BC704780B483B000AF786046
:1013800039607A683B689B01134402221A6000BFEF
:101390000C37BD4680BC704780B485B000AFF860A4
:1013A000B9607A60FA68BB689B0113441C337A68A1
:1013B0001A6000BF1437BD4680BC704780B487B048
:1013C00000AFF860B9607A60FA68BB689B011344AB
:1013D0007B617B697A685A6200BF1C37BD4680BC5E
:1013E000704700BF80B485B000AF786039607A681C
:1013F0003B689B011344FB60FB681B6A184614376B
:10140000BD4680BC704700BF80B485B000AF786037
:1014100039600023FB607B68AC221A603B681A6865
:101420003B685B68B2FBF3F31B09FB60FB68002BB6
:1014300003D0FB68B3F5803F01D301230FE07B6845
:10144000FA681A623B689A687B685A607B6840F267
:101450000222C3F820217B6850221A60002318461C
:101460001437BD4680BC704780B483B000AF78604D
:101470007B6840221A6000BF0C37BD4680BC7047B5
:1014800080B483B000AF78607B6810221A6000BF20
:101490000C37BD4680BC704780B483B000AF786025
:1014A0007B6850221A6000BF0C37BD4680BC704775
:1014B00080B483B000AF786039607B683A689A6026
:1014C00000BF0C37BD4680BC704700BF80B483B0FE
:1014D00000AF78600B46FB707B685B6903F002032A
:1014E000002B01D1012303E0FA787B68DA61002345
:1014F00018460C37BD4680BC704700BF80B483B02F
:1015000000AF786039607B685B6903F00103002BF2
:1015100001D1012305E07B689B69DAB23B681A7050
:10152000002318460C37BD4680BC704780B489B094
:1015300000AFF860B9607A60BB681A017B689A42B4
:1015400002D81023FB6101E00823FB617B68DA000D
:10155000FB69B96801FB03F35B081A44FB69B968CE
:1015600001FB03F3B2FBF3F3BB61BB69DB087B61F7
:10157000BB6903F007033B617B69002B03D07B69E8
:10158000B3F5803F01D301230FE0FB69082B05D1A0
:10159000FB685B6843F40022FB685A603B691A04ED
:1015A0007B691A43FB681A62002318462437BD463C
:1015B00080BC704780B582B000AF786078680D4B12
:1015C00098477B6800225A607B6800225A627B68D9
:1015D00000229A627868084B98477868074B9847CA
:1015E0007868074B98477868064B984700BF0837DC
:1015F000BD4680BD89170800A5160800D51608004D
:10160000ED1608000917080080B584B000AFF86037
:10161000B9607A60F8681A4B98471A4B00221A6032
:10162000BB68002B09D0BB681B687A681946F8684C
:10163000154B98470346002B01D001231BE0BB68E4
:101640005A68BB689B681A43BB681B691A43BB682E
:10165000DB681A430B4B1B6813430A4A1360094BA0
:101660001B68084A1360FB685A68064B1B681A43DC
:10167000FB685A60002318461037BD4680BD00BF86
:10168000B5150800C40C07202D15080080B483B0E0
:1016900000AF78607B6840221A6000BF0C37BD46FF
:1016A00080BC704780B483B000AF78607B688822CC
:1016B0001A6000BF0C37BD4680BC704780B483B051
:1016C00000AF78607B6810221A6000BF0C37BD46FF
:1016D00080BC704780B483B000AF78607B68242200
:1016E0001A6000BF0C37BD4680BC704780B483B021
:1016F00000AF78607B684FF480721A6000BF0C37CF
:10170000BD4680BC704700BF80B483B000AF786036
:101710007B684FF400221A6000BF0C37BD4680BCC6
:10172000704700BF80B483B000AF786039607B68D9
:101730005B6903F00203002B01D1012305E03B6844
:10174000C3F308027B68DA61002318460C37BD46F4
:1017500080BC704780B483B000AF786039607B682C
:101760005B6903F00103002B01D1012306E07B68D4
:101770009B69C3F308023B681A60002318460C37C4
:10178000BD4680BC704700BF80B483B000AF7860B6
:101790007B68044AC3F8E42000BF0C37BD4680BC18
:1017A000704700BF0041535580B483B000AF03467B
:1017B000FB71084997F907305B09FA7902F01F02BB
:1017C000012000FA02F241F8232000BF0C37BD4689
:1017D00080BC704700E100E080B483B000AF0346F6
:1017E000FB71094997F907305B09FA7902F01F028A
:1017F000012000FA02F2203341F8232000BF0C3709
:10180000BD4680BC704700BF00E100E080B483B0FB
:1018100000AF0346FB71094997F907305B09FA7974
:1018200002F01F02012000FA02F2603341F8232087
:1018300000BF0C37BD4680BC704700BF00E100E030
:1018400080B483B000AF03463960FB7197F907306D
:10185000002B0BDA0D49FB7903F00F03043B3A68C8
:10186000D2B21201D2B20B441A7609E0084997F9B4
:1018700007303A68D2B21201D2B20B4483F8002387
:1018800000BF0C37BD4680BC704700BF00ED00E0D4
:1018900000E100E080B483B000AF78607B68072B84
:1018A00025D801A252F823F0C9180800CF18080063
:1018B000D5180800DB180800DF180800E318080036
:1018C000E7180800EB1808004FF4FA4310E04FF453
:1018D00000430DE04FF400430AE0084B08E0084BDA
:1018E00006E0084B04E0074B02E0064B00E0002353
:1018F00018460C37BD4680BC704700BF00093D004C
:1019000000127A00001BB70080B500AF0620044B20
:10191000984702461346DB009B1A5B00184680BDC1
:101920009518080080B500AF024B984703465B0846
:10193000184680BD0919080080B582B000AF7860F4
:101940007868034B984700BF0837BD4680BD00BF8D
:10195000CD2F080080B58CB000AF78603960404B67
:10196000984703463B623B681B687B623B689B6809
:10197000BB623B681B68BB603B685B68FB603B68A5
:101980009B683B613B681B7B7B610023BB617B6881
:10199000344A934208D10820334B984707F120037B
:1019A00019467868314B98477B68314A934211D188
:1019B00011202D4B98472A4B9847024607F1080300
:1019C000194678682B4B984778682B4B984778686E
:1019D0002A4B98477B682A4A934211D11220224B06
:1019E00098471F4B9847024607F108031946786845
:1019F000204B98477868204B984778681F4B98474A
:101A00007B68204A934211D11320174B9847144BFF
:101A10009847024607F1080319467868154B98471E
:101A20007868154B98477868144B98477B68164A36
:101A3000934211D114200C4B9847094B984702460A
:101A400007F10803194678680A4B984778680A4BEB
:101A500098477868094B984700BF3037BD4680BD2E
:101A60002519080000080E4039190800091408005B
:101A700000800940091608008D160800BD160800F0
:101A800000C0094000000A4000400A4080B582B012
:101A900000AF78600B46FB707B68274A93420AD1FF
:101AA00000BFFB7819467868244B98470346002B03
:101AB000F7D101233CE07B68214A93420AD100BF61
:101AC000FB78194678681F4B98470346002BF7D1DF
:101AD00001232DE07B681C4A93420AD100BFFB78AA
:101AE00019467868174B98470346002BF7D1012316
:101AF0001EE07B68154A93420AD100BFFB78194665
:101B00007868104B98470346002BF7D101230FE06C
:101B10007B680F4A93420AD100BFFB781946786868
:101B2000084B98470346002BF7D1012300E0002320
:101B300018460837BD4680BD00080E40CD14080089
:101B4000008009402517080000C0094000000A4035
:101B500000400A4080B584B000AF7860396000234F
:101B6000FB607B682B4A934207D100BF39687868D5
:101B7000294B98470346002BF8D17B68274A9342AC
:101B80000DD100BF07F10C0319467868244B984724
:101B90000346002BF6D1FB68DAB23B681A707B680B
:101BA000204A93420DD100BF07F10C031946786813
:101BB0001B4B98470346002BF6D1FB68DAB23B6813
:101BC0001A707B68184A93420DD100BF07F10C03CD
:101BD00019467868124B98470346002BF6D1FB68EC
:101BE000DAB23B681A707B68104A93420DD100BF8D
:101BF00007F10C0319467868094B98470346002BF8
:101C0000F6D1FB68DAB23B681A7000BF1037BD46E8
:101C100080BD00BF00080E40FD1408000080094090
:101C20005517080000C0094000000A4000400A4063
:101C300080B582B000AF786039600F4A7B6813606E
:101C40000E4B0F4A1A600F4B0F4A1A6039687868BA
:101C50000E4B98470E4B1B689B68002118460D4B96
:101C600098470B4B1B685B6800211846094B984747
:101C700000BF0837BD4680BDF8110720F4110720CA
:101C80008D1A0800F0110720551B0800551908008F
:101C900030080720D938080080B582B000AF284B43
:101CA0001B780133DAB2264B1A70264B5B697B60D6
:101CB0007B6803F00103002B3DD0224B9B69FB7036
:101CC000FB787F33FB701E4B1B78012B03D1FB7815
:101CD0001D4A136009E01A4B1B78022B05D1FB78D3
:101CE0001A4A1360164B00221A70174B1968174BCB
:101CF0001B681A461648174B984700211648174B81
:101D0000984701211448154B98470F4B1B681A46FA
:101D100000211148124B98470C4B1B681A460121B1
:101D20000D480F4B984700210B480E4B9847012157
:101D300009480C4B984700BF0837BD4680BD00BF1F
:101D4000E40C072000080E40D40C072008120720DE
:101D50007067080015380800000008407913080073
:101D6000991308005913080090B585B000AF1A4BBD
:101D700098471A4B98470820194B98470B20194B46
:101D80009847194B50221A60174B4FF400625A6063
:101D9000154B46221A62154B4FF440725A6614498D
:101DA0001148144B98471048134B98470E48134B53
:101DB00098470D48124B98470820124B9847082027
:101DC000114B984700210820104B98470820104BD2
:101DD00098470023FB6020E0E1270800D1110800AC
:101DE00039190800CD2F080000080E40000E0E40E3
:101DF00060670800311C080099140800811408006D
:101E000069140800D91708000D18080041180800C7
:101E1000A9170800FB680133FB60FB68954A9342F1
:101E2000F8DD9548954B98470B20954B98470C202B
:101E3000934B98470D20924B98470E20904B984714
:101E4000904BDB6B5B0E03F001038F4A13608F4BEB
:101E5000DB6B1B0F03F001038D4A13608B4BDB6BB5
:101E60009B0E03F001038B4A1360894B1B688A4A5F
:101E70001360884B1B68894A1360894BBB6041F62D
:101E8000A2137B6001218748874B98477D4B4FF415
:101E900000221A607B4B4FF400221A61834B1B789F
:101EA000012B57D0824B1B68002B25D1814BDB6B5C
:101EB0009B0B03F00103744A1360734B1B68012BE7
:101EC00016D17D4B1B68002B12D17C4B1B68013354
:101ED0007A4A1360794B1B68022B09D1002178489C
:101EE000784B9847754B00221A60714B01221A609B
:101EF000654B1B68704A1360734B1B68002B29D11C
:101F00006B4B1B68012B25D16A4BDB6BDB0B03F0A2
:101F100001035F4A13605E4B1B68012B16D15E4BB9
:101F20001B68002B12D1694B1B680133674A136091
:101F3000664B1B68022B09D101216148614B984710
:101F4000624B00221A60604B01221A60504B1B68E2
:101F5000514A13605E4B1B78012B35D1554BDB6B1F
:101F60009B0B03F00103484A1360474B1B68012B8E
:101F70000BD1514B1B68002B07D1564B1B6801330B
:101F8000544A1360544B00221A603F4B1B684A4A64
:101F90001360484BDB6BDB0B03F001033C4A13601F
:101FA0003B4B1B68012B0BD13B4B1B68002B07D114
:101FB0004A4B1B680133494A1360494B00221A609F
:101FC000334B1B68344A1360464B1B78DBB2012B42
:101FD00024D1374B1B68012B20D13B4B1B68012BB5
:101FE0001CD12A4BDB6B9B0E03F00103294A1360C3
:101FF000284B1B68012B0DD1284B1B68002B09D1E6
:10200000394B9847394B9847BB681D2202212C4811
:10201000374CA0471F4B1B68204A1360354B1B7879
:10202000052B3FF63BAF01A252F823F045200800F4
:10203000FD2008009D1E08005F20080017210800F1
:102040002D2108002C4B4FF47A721A60264B9847CA
:10205000284B03221A70234B00221A7014E1144BF0
:102060001B68012B02D1234B01221A701D4B002249
:102070001A7009E19F86010078670800153808008A
:10208000CD2F080000100E40E80C072000120E4073
:10209000EC0C0720F00C0720F40C0720F80C0720AC
:1020A000F306140000080E40B1140800D00C0720FD
:1020B000FC0C0720000E0E40000D0720040D072029
:1020C0000000084079130800080D07200C0D0720B8
:1020D000D80C0720DC0C0720A00C0720E00C072000
:1020E000A40C0720D10C0720CD220800792308007A
:1020F0003D11080000040720D40C0720634B4FF467
:102100007A721A60624B9847624B04221A70624BD3
:1021100000221A70B8E0614B1B68012B02D15D4BA5
:1021200005221A705C4B00221A70ADE05C4B1B78E4
:10213000DBB2012B7FF4B2AE5A4B1B78FB70FB78FD
:10214000013B0C2B00F2958001A252F823F000BF56
:10215000D72108002122080061220800E52108009B
:10216000F721080003220800152208009D2108001D
:10217000BF2108007322080073220800852108008F
:1021800091210800484BD2221A60484B984771E0D1
:102190003E4BD2221A603E4B98476BE0424BD22214
:1021A0001A603A4BD2221A60404B9847384B9847F6
:1021B000384B05221A703E4B01221A705AE03D4BF3
:1021C0009847344B05221A70334B00221A70384B53
:1021D00000221A704EE0304B00221A702D4B002264
:1021E0001A7047E0304BD2221A60304B9847294B87
:1021F00005221A703EE02F4B9847264B05221A7095
:1022000038E0224BD2221A60214B9847214B0522FD
:102210001A702FE0274B98471E4B05221A7029E0B1
:10222000254B1B889BB2872B06D11F4BD2221A60ED
:10223000164BD2221A6000BF204B01221A70BB68D5
:102240001D2202211E481F4CA047184B9847104BD7
:102250009847114B01221A700E4B05221A7009E0A3
:10226000144B98470B4B05221A700B4B00221A7027
:1022700000E000BF0B4B00221A70094B00221A70BD
:10228000114B00221A6000BF08E600BF08120720A9
:102290007923080000040720D10C0720080D07202F
:1022A000EC0D0720940C0720D40C0720CD22080049
:1022B000D00C072019240800C60D0720D80C0720D1
:1022C000000008403D1108008E0C072098B500AFB3
:1022D0001F4B4FF4C0125A631E4B03221A601E4B51
:1022E0004FF4FF721A601B4B1C4AC3F8E4201A4BD0
:1022F0001A4AC3F8E420174B0322C3F8A020154B59
:102300000C22C3F8A420144B4FF4FF72C3F8A02092
:10231000114B4FF47F22C3F8A4200E4A104B1B68C8
:10232000104951F8333093630B4A0D4B1B680D492C
:10233000DB000B445B68936301200B4B98470B4B0E
:102340001B681B2200210A480A4CA04700BF98BD09
:10235000000E0E4000140E4000120E40004F495077
:10236000C80C072000000720B1110800D40C07207A
:10237000000008405D10080098B500AF1C4B1D4AD6
:10238000C3F8E4201C4B1B4AC3F8E420184B0C2272
:10239000C3F8A020164B0322C3F8A420164B4FF419
:1023A0007F22C3F8A020144B4FF4FF72C3F8A4207F
:1023B000124B4FF401125A630D4A114B1B6811491D
:1023C00051F8333093630C4A0D4B1B680D49DB0009
:1023D0000B445B68936302200B4B98470B4B1B68C5
:1023E0001C2201210A480B4CA04700BF98BD00BF2A
:1023F00000140E40004F495000120E4000100E40D5
:10240000CC0C072000020720B11108000812072099
:1024100000000840CD10080080B500AF0020064B3A
:1024200098470120044B98470320034B984704200A
:10243000014B984700BF80BD4112080080B582B0B3
:1024400000AF78607B68072B31D801A252F823F0E7
:10245000AD240800712408007924080081240800B4
:10246000892408009124080099240800A324080066
:102470000020114B98471AE001200F4B984716E0B7
:1024800000200E4B984712E010200C4B98470EE0AE
:1024900020200A4B98470AE03E210020084B98472D
:1024A00005E03E210120064B984700E000BF00BF39
:1024B0000837BD4680BD00BFE92D0800552E080035
:1024C000F52E080080B582B000AF78607B68072BDE
:1024D00026D801A252F823F0F9240800FD240800B0
:1024E000FD2408000F2508000F2508000F2508000F
:1024F0000F2508000F250800012312E00B4B984719
:102500000346002B14BF01230023DBB209E0084B74
:1025100098470346002B14BF01230023DBB200E0E1
:10252000002318460837BD4680BD00BF212E080095
:102530006D2F080080B483B000AF78607B68072BF4
:1025400025D801A252F823F0692508006F2508005C
:10255000752508007B2508007F25080083250800D5
:10256000872508008B2508004FF4FA4310E04FF44C
:1025700000430DE04FF400430AE0084B08E0084B2D
:1025800006E0084B04E0074B02E0064B00E00023A6
:1025900018460C37BD4680BC704700BF00093D009F
:1025A00000127A00001BB70080B582B000AF03466E
:1025B000FB7100BFFB791846054B9847034683F033
:1025C0000103DBB2002BF5D100BF0837BD4680BD4B
:1025D000C524080080B586B000AFF8607A603B6023
:1025E0000B46FB727B68002B07D13B68002B04D1A4
:1025F000FB684FF470021A6019E0FB7A18460E4B24
:10260000984702467B68B2FBF3F37B617B693A68CB
:1026100002FB03F37B613B68013B1A04074B134049
:102620007A68D2B2134343F47C52FB681A6000BF4D
:102630001837BD4680BD00BF352508000000FF07E4
:1026400080B582B000AF786039603B68002B08D15C
:10265000094B9847094A7B681B6843F00053936213
:1026600005E0064A7B681B6843F48033D36100BFF2
:102670000837BD4680BD00BF852F080000060E400C
:1026800080B582B000AF78607B68002B03D1054B2A
:102690009847034602E0044B98470346184608371C
:1026A000BD4680BD9D2F0800B52F080080B582B0C3
:1026B00000AF0346FB71FB79033B042B08D8FB7981
:1026C0001846064B9847FB791846054B984700E09B
:1026D00000BF00BF0837BD4680BD00BF3D240800D5
:1026E000A925080080B582B000AF786000BF786887
:1026F000044B98470346002BF9D0002318460837AF
:10270000BD4680BD8126080080B500AF0620044B81
:10271000984702461346DB009B1A5B00184680BDB3
:102720003525080080B500AF024B984703465B088B
:10273000184680BD0927080090B583B000AF104B44
:102740009847034618460F4B984706200E4B98476C
:10275000381D0E23012206210C4CA0473B1D0021F1
:1027600018460B4B984700200A4B984710200A4BFD
:1027700098470A4B984700BF0C37BD4690BD00BF35
:1027800025270800B9320800AD260800D525080025
:1027900041260800E5260800692D080035310800AB
:1027A00080B582B000AF78607868034B984700BF6F
:1027B0000837BD4680BD00BFCD2F080080B500AFF3
:1027C0000B20064B98470C20044B98470D20034BD9
:1027D00098470E20014B984700BF80BDA1270800F5
:1027E00080B500AF174B4FF400425A60164B984724
:1027F0004FF060513B20154B98474FF060515520EA
:10280000124B98474FF060515620104B9847104993
:1028100068200E4B98470F495C200C4B98474FF0AF
:1028200000624FF440710C480C4B98474FF0006128
:102830002B20064B98474FF000612A20034B984706
:1028400000BF80BD501A0E40BD2708003D2A080079
:102850007900002801000028000E0E40792B0800A6
:1028600080B485B000AFF860B9607A607B68002BF7
:1028700003D0FB68BA685A6602E0FB68BA681A6659
:1028800000BF1437BD4680BC704700BF80B487B01E
:1028900000AFF860B9607A60FB687A685A64BB6818
:1028A000B3F1805F1FD0B3F1805F05D8002B27D034
:1028B000B3F1006F0AD01FE0B3F1405F20D0B3F155
:1028C000605F1DD0B3F1205F1AD015E0FB681B6F6D
:1028D0007B61FB681A6F7B68D9437B690B401A40A8
:1028E000FB681A6708E0FB681B6F7B617A687B698D
:1028F0001A43FB681A6700BFFB687A685A6000E0F9
:1029000000BF1C37BD4680BC704700BF80B584B097
:1029100000AFF860B9607A60B968F868194B9847F9
:102920007B6803F001031A46B968F868164B9847AC
:102930007B6803F00A03002B03D0FB68BA681A62B5
:1029400002E0FB68BA685A627B6803F00203002B5E
:1029500004D0FB68BA68C3F8802008E07B6803F005
:102960000803002B03D0FB68BA68C3F88020FB681B
:10297000BA685A61FB68BA681A6000BF1037BD4672
:1029800080BD00BFF12908006128080080B584B02F
:1029900000AFF860B9607A603B60B968F868124BC4
:1029A0009847BA69B968F868104B98473B68002B9C
:1029B00003D0FB68BA681A6502E0FB68BA685A651A
:1029C0007B68002B03D0FB68BA681A6302E0FB68DF
:1029D000BA685A63FB68BA681A61FB68BA681A6019
:1029E00000BF1037BD4680BDF129080061280800EE
:1029F00080B483B000AF786039607B683A685A640D
:102A000000BF0C37BD4680BC704700BF80B483B0A8
:102A100000AF78607B68DB6C18460C37BD4680BC25
:102A2000704700BF80B483B000AF78607B689B6C58
:102A300018460C37BD4680BC704700BF90B587B0C4
:102A400002AF786039607B685B0903F5001303F21D
:102A500007735B02FB603B6803F0F043B3F1205F58
:102A600046D0B3F1205F06D8B3F1006F0AD0B3F1BE
:102A7000805F22D070E0B3F1405F45D0B3F1605F7A
:102A800042D069E07B6803F01F03012202FA03F3DE
:102A90001A464FF00061F868334B98477B6803F0A3
:102AA0001F03012202FA03F319463B6803F00103F6
:102AB0001A46F8682D4B984750E07B6803F01F03D7
:102AC000012202FA03F31A464FF08051F868264BB0
:102AD00098477B6803F01F03012202FA03F31946AB
:102AE0003B6803F001031A46F868204B984735E02D
:102AF0007B6803F01F03012202FA03F33A681946C8
:102B0000F8681B4B984729E07B6803F01F030122FC
:102B100002FA03F319463B6803F06053B3F1605FB8
:102B20000CBF01230023DBB21A463B6803F0040309
:102B3000002B14BF01230023DBB218463B6803F0CF
:102B40000103002B14BF01230023DBB200930346D3
:102B5000F868084CA04701E0002300E00123184674
:102B60001437BD4690BD00BF8D28080061280800BD
:102B70000D2908008D29080090B587B002AFF860D4
:102B8000B9607A607B6803F0F043B3F1205F2ED028
:102B9000B3F1205F06D8B3F1006F0AD0B3F1805FC4
:102BA00016D04CE0B3F1405F27D0B3F1605F24D082
:102BB00045E0BA684FF00061F868244B98477B689D
:102BC00003F001031A46B968F868214B984738E0CA
:102BD000BA684FF08051F8681C4B98477B6803F047
:102BE00001031A46B968F868194B984729E07A68D2
:102BF000B968F868174B984723E07B6803F0605387
:102C0000B3F1605F0CBF01230023DBB21A467B687F
:102C100003F00403002B14BF01230023DBB2194689
:102C20007B6803F00103002B14BF01230023DBB2F8
:102C300000930B46B968F868074CA04701E00023F1
:102C400000E0012318461437BD4690BD8D280800CA
:102C5000612808000D2908008D29080080B584B07E
:102C600000AF786039607868244B9847F8607868DE
:102C7000234B98470246FB681340FB60FB68002B20
:102C800037D00023BB6031E01E4ABB681B011344F0
:102C90001A683B689A4226D11A4ABB681B01134442
:102CA00004331A68FB681340002B1CD0154ABB681C
:102CB0001B0113440C331B681249BA6812010A4401
:102CC00010681049BA6812010A44043212681146A9
:102CD00098470C4ABB681B01134404331B68DB4351
:102CE000FA681340FB60BB680133BB60FB68002BD4
:102CF000CAD100BF1037BD4680BD00BF0D2A0800F5
:102D0000252A0800100D072080B500AF0B210248CE
:102D1000024B984700BF80BD000E0E405D2C08009E
:102D200080B500AF0C210248024B984700BF80BD20
:102D300000100E405D2C080080B500AF0D21024848
:102D4000024B984700BF80BD00120E405D2C08006A
:102D500080B500AF0E210248024B984700BF80BDEE
:102D600000140E405D2C080080B485B000AF786080
:102D70001C491C4B1B6B23F070027B6813430B63D5
:102D80004FF40063FB6007E0FB68002B01D10123D7
:102D900023E0FB68013BFB60124B9B6E03F00803D2
:102DA000002BF1D00F4A0F4B1B6B23F0030343F0B2
:102DB000020313634FF40063FB6007E0FB68002B22
:102DC00001D1012309E0FB68013BFB60054B9B6ED1
:102DD00003F00803002BF1D0002318461437BD463A
:102DE00080BC704700060E4080B483B000AF7860AE
:102DF0007B68012B07D1084A074B9B6843F02543AA
:102E000043F480139360044B044A1A6000BF0C37EC
:102E1000BD4680BC704700BF101A0E40080000A5D8
:102E200080B400AF094B5B6903F08003002B07D02F
:102E3000074B9B6E03F08003002B01D0012300E0C1
:102E400000231846BD4680BC704700BF101A0E40D4
:102E500000060E4080B485B000AF78600023FB60B0
:102E6000214B1B6A03F00103002B0ED01E491E4BA1
:102E70001B6A23F45C1323F078037A68134343F44A
:102E80005C1343F008030B620BE00123FB6016495F
:102E9000154B1A6A154B13407A681A43144B1343A7
:102EA0000B6200BF104B9B6E03F40033002BF9D074
:102EB0000D4A0D4B1B6A23F09B7323F4803343F4BC
:102EC0005C131362FB68002B09D0074A064B1B6A90
:102ED00023F45C1323F0010343F45C13136200BF7B
:102EE0001437BD4680BC704700060E408600C8FF00
:102EF00009FF370080B483B000AF786039607B6829
:102F0000002B08D01649164B1B6A164A1A40164B5E
:102F100013430B621EE01249114B1B6A23F45C132E
:102F200023F003033A68120292B2134343F45C1392
:102F300043F001030B6200BF094B9B6E03F00103DA
:102F4000002BF9D0064A064B1B6A43F09B7343F4EF
:102F50008033136200BF0C37BD4680BC704700BF92
:102F600000060E40FCFFC8FE0200370180B400AF2F
:102F7000034B9B6E03F480331846BD4680BC7047FC
:102F800000060E4080B400AF034B4FF000529A622F
:102F900000BFBD4680BC704700060E4080B400AF45
:102FA000034B9B6E03F002031846BD4680BC70477E
:102FB00000060E4080B400AF034B9B6E03F040034D
:102FC0001846BD4680BC704700060E4080B483B0F2
:102FD00000AF78607B682C2B01D901232FE07B6840
:102FE0001F2B13D8184B9A6901217B6801FA03F350
:102FF0001A4001217B6801FA03F39A421ED0124A5B
:1030000001217B6801FA03F3136117E07B68203B21
:103010007B600D4BD3F8082101217B6801FA03F393
:103020001A4001217B6801FA03F39A4206D0064A4E
:1030300001217B6801FA03F3C2F80031002318462E
:103040000C37BD4680BC704700060E4080B483B08C
:1030500000AF78607B68002B04D0074B074AC3F8A9
:10306000E42003E0044B064AC3F8E42000BF0C3719
:10307000BD4680BC704700BF00060E4001434D5066
:1030800000434D5080B400AFFEE700BF80B582B072
:1030900000AF1E4B7B601E4B3B607A683B689A42D8
:1030A0000CD007E03B681A1D3A607A68111D796000
:1030B00012681A603B68174A9342F3D3164B3B6081
:1030C00004E03B681A1D3A6000221A603B68134A0C
:1030D0009342F6D3124B7B60124A7B6823F0604325
:1030E00023F07F0393607B68B3F1005F09D37B68B3
:1030F0000D4A934205D80B4A0A4B9B6843F0005394
:1031000093600A4B98470A4B9847FEE70868080007
:10311000000007206C0C07206C0C072048120720C9
:103120000000080000ED00E0FFFF0F20C537080099
:10313000691D080080B400AF574B1B6B03F00303FD
:10314000032B00F28A8001A252F823F05D310800BF
:103150007D310800CD310800CD3108004F4B5B694F
:1031600003F08003002B04D04D4B4FF400421A6053
:1031700073E04B4B4FF4FA421A606EE0464B1B6A09
:1031800003F08073002B03D0454B464A1A6064E07D
:10319000434B454A1A60404B1B6A03F07003102BE7
:1031A00004D0202B08D0002B0ED00EE03C4B1B6827
:1031B0005B003B4A136008E0394B1A6813465B001A
:1031C0001344374A136000E000BF46E0324B1B6AED
:1031D00003F08073002B03D0314B324A1A601CE09D
:1031E0002F4B314A1A602C4B1B6A03F07003102BD3
:1031F00004D0202B08D0002B0ED00EE0284B1B68EB
:103200005B00274A136008E0254B1A6813465B00F1
:103210001344234A136000E000BF1F4B1B6B03F0F5
:103220000303022B15D11C4B9A6A204B13401B0C35
:1032300001331B4A126802FB03F3194A1360164B51
:103240009B6ADBB2164A1268B2FBF3F3144A1360AE
:1032500002E0134B164A1A6000BF0F4B1B6B03F0C2
:103260007003702B08D10E4B1B68124AA2FB03237C
:103270005B080B4A13600AE0074B1B6B03F07003FB
:103280001B09074A126822FA03F3054A136000BFBC
:10329000BD4680BC704700BF00060E40101A0E40AD
:1032A00004040720001BB70000093D000000FF07D1
:1032B000001C4E0EABAAAAAA80B483B000AF7860FF
:1032C0007B68254A934206D8244B00221A60244B7F
:1032D00000221A603BE07B68224A934208D81F4BC9
:1032E0004FF480721A601E4B4FF480721A602EE009
:1032F0007B681D4A934208D8184B4FF400721A603D
:10330000174B4FF400721A6021E07B68174A934212
:1033100008D8124B4FF440721A60114B4FF44072B0
:103320001A6014E07B68124A934208D80B4B4FF4A2
:1033300080621A600A4B4FF480621A6007E0074B04
:103340004FF4A0621A60064B4FF4A0621A6000BFEF
:103350000C37BD4680BC7047BFEA2101000A0E4011
:10336000000C0E407FF0FA02FF8FD003FFB3C404BD
:103370007F4A5D0580B485B000AF78600A4B1B685A
:10338000002B02D1084B094A1A60074B1B68FB60EF
:10339000054B1A687B681344034A1360FB681846A0
:1033A0001437BD4680BC7047800D07204832072087
:1033B00080B483B000AF78604FF0FF3318460C370D
:1033C000BD4680BC704700BF80B483B000AF78605A
:1033D00039603B684FF400525A60002318460C379E
:1033E000BD4680BC704700BF80B483B000AF78603A
:1033F000012318460C37BD4680BC704780B485B0A9
:1034000000AFF860B9607A60002318461437BD46F3
:1034100080BC704781F0004102E000BF83F00043B0
:1034200030B54FEA41044FEA430594EA050F08BF5F
:1034300090EA020F1FBF54EA000C55EA020C7FEA23
:10344000645C7FEA655C00F0E2804FEA5454D4EBA0
:103450005555B8BF6D420CDD2C4480EA020281EA6A
:10346000030382EA000083EA010180EA020281EAA2
:103470000303362D88BF30BD11F0004F4FEA0131F4
:103480004FF4801C4CEA113102D0404261EB410103
:1034900013F0004F4FEA03334CEA133302D0524289
:1034A00063EB430394EA050F00F0A780A4F1010445
:1034B000D5F1200E0DDB02FA0EFC22FA05F280187F
:1034C00041F1000103FA0EF2801843FA05F3594165
:1034D0000EE0A5F120050EF1200E012A03FA0EFCE4
:1034E00028BF4CF0020C43FA05F3C01851EBE3710E
:1034F00001F0004507D54FF0000EDCF1000C7EEB2B
:1035000000006EEB0101B1F5801F1BD3B1F5001F68
:103510000CD349085FEA30004FEA3C0C04F1010487
:103520004FEA445212F5800F80F09A80BCF1004FB0
:1035300008BF5FEA500C50F1000041EB045141EA32
:10354000050130BD5FEA4C0C404141EB010111F433
:10355000801FA4F10104E9D191F0000F04BF0146DE
:103560000020B1FA81F308BF2033A3F10B03B3F1BC
:1035700020020CDA0C3208DD02F1140CC2F10C024C
:1035800001FA0CF021FA02F10CE002F11402D8BFAA
:10359000C2F1200C01FA02F120FA0CFCDCBF41EA76
:1035A0000C019040E41AA2BF01EB0451294330BD45
:1035B0006FEA04041F3C1CDA0C340EDC04F1140422
:1035C000C4F1200220FA04F001FA02F340EA0300F9
:1035D00021FA04F345EA030130BDC4F10C04C4F13F
:1035E000200220FA02F001FA04F340EA030029461F
:1035F00030BD21FA04F0294630BD94F0000F83F469
:10360000801306BF81F480110134013D4EE77FEA4B
:10361000645C18BF7FEA655C29D094EA050F08BF97
:1036200090EA020F05D054EA000C04BF1946104678
:1036300030BD91EA030F1EBF0021002030BD5FEABC
:10364000545C05D14000494128BF41F0004130BDE4
:1036500014F580043CBF01F5801130BD01F0004538
:1036600045F0FE4141F470014FF0000030BD7FEAAB
:10367000645C1ABF194610467FEA655C1CBF0B46A6
:10368000024650EA013406BF52EA033591EA030FBD
:1036900041F4002130BD00BF90F0000F04BF0021B5
:1036A000704730B54FF4806404F132044FF00005E8
:1036B0004FF0000150E700BF90F0000F04BF002161
:1036C000704730B54FF4806404F1320410F00045C7
:1036D00048BF40424FF000013EE700BF42004FEAC2
:1036E000E2014FEA31014FEA02701FBF12F07F433F
:1036F00093F07F4F81F06051704792F0000F14BF3C
:1037000093F07F4F704730B54FF4607401F000457F
:1037100021F0004120E700BF50EA010208BF7047D6
:1037200030B54FF000050AE050EA010208BF7047CB
:1037300030B511F0004502D5404261EB41014FF434
:10374000806404F132045FEA915C3FF4DCAE4FF038
:1037500003025FEADC0C18BF03325FEADC0C18BF1F
:10376000033202EBDC02C2F1200300FA03FC20FA70
:1037700002F001FA03FE40EA0E0021FA02F11444BD
:10378000C1E600BF4A0011D212F5001211D20DD5C8
:103790006FF47873B3EB62520ED44FEAC12343F057
:1037A000004343EA505323FA02F070474FF0000001
:1037B000704750EA013002D14FF0FF3070474FF0B0
:1037C0000000704770B50F4E0F4D761BB61018BF36
:1037D000002405D0013455F8043B9847A642F9D19E
:1037E0000A4E0B4D02F0FAFF761BB61018BF0024EC
:1037F00006D0013455F8043B9847A642F9D170BD74
:1038000070BD00BFE8670800E8670800F0670800BF
:10381000E86708000FB410B5074B82B004AC54F849
:10382000042B186823468168019400F06FF902B0F8
:10383000BDE8104004B070473008072070B484071A
:1038400046D0541E002A41D0CDB2034602E0621E8B
:10385000E4B3144603F8015B9A07F8D1032C2ED980
:10386000CDB245EA05250F2C45EA054519D926466E
:1038700003F11002103E0F2E42F8105C42F80C5C6F
:1038800042F8085C42F8045C02F11002F2D8A4F19C
:10389000100222F00F0204F00F041032032C134424
:1038A0000DD91E462246043A032A46F8045BFAD88C
:1038B000221F22F003020432134404F003042CB14B
:1038C000C9B21C4403F8011BA342FBD170BC704772
:1038D00014460346C2E700BF00290CBF02220022A3
:1038E0004FF4806300F000B82DE9F043514D83B0F0
:1038F0002D6804460F4690461E4615B1AB6B002B53
:1039000079D0B8F1020F04D0B8F1010F7FD8002EA2
:103910007DDB2146284601F03BF9216B41B104F1E2
:103920004003994202D0284601F08EFA0023236317
:10393000B4F90C300022A26162601A0654D423F458
:103940004A6323F00303B8F1020FA38139D001AB1E
:103950006A462146284601F015FDA3891843A08137
:1039600026B327B3AB6B002B4DD0009BB4F90C00F2
:103970009E421CBF40F40060A081B8F1010F08BF57
:1039800040F0010083B208BFA08103F0080080B2BC
:1039900027602761666118B313F001002FD0002063
:1039A0007642A661A06003B0BDE8F083009E304679
:1039B00001F05CFD074668B3A38943F08003A3814F
:1039C000D0E7002004F1430243F002030025012167
:1039D000A381A56022602261616103B0BDE8F0832C
:1039E000A06003B0BDE8F0832169284601F02CFAFD
:1039F000B4F90C30A3E7284601F05EF981E7A66030
:103A000003B0BDE8F083284601F056F9ADE74FF06A
:103A1000FF30E2E7DDF80090B14506D0484601F0FE
:103A200025FD074608B14E46C6E7B4F90C304FF005
:103A3000FF30C7E73008072020F0030110F0030033
:103A4000C0F1000051F8043B00F1040C4FEACC0C2B
:103A50006FF000021CBF22FA0CF213434FF0010C6E
:103A60004CEA0C2C4CEA0C4CA3EB0C0222EA0302AD
:103A700012EACC1204BF51F8043B0430F4D0C2F176
:103A8000000102EA0102B2FA82F2C2F11F0200EB67
:103A9000D20070474B6E2DE9F0479C0492462CD51E
:103AA000936812683BB30F46804602F1080919E992
:103AB0006000B60817D0043D002401E0A64210D0F3
:103AC0003A4655F8041F404601F05EF9431C04F1E4
:103AD0000104F3D10023CAF80830CAF80430BDE865
:103AE000F087DAF80830A3EB8603CAF8083009F14A
:103AF0000809002BDBD10020ECE701F08DFA002350
:103B0000CAF80830CAF80430BDE8F0872DE9F04F54
:103B1000ABB01C46009190460493059018B1836B9E
:103B2000002B00F0DE800098B0F90C108AB29504EA
:103B300007D4436E41F4005223F40053828143665C
:103B400092B2110740F1B180009B1B69002B00F07D
:103B5000AC8002F01A020A2A00F0B5800DF1680A62
:103B6000D346002302930F930E93CDF834A098F818
:103B700000304446FBB1252B02D11CE0252B03D09D
:103B800014F8013F002BF9D1C8EB04059DB10E9B41
:103B90000F9A01332A44072BCBF80080CBF804504E
:103BA0000F920E937BDD002A40F01F85D346029BC7
:103BB0000E922B4402932378002B00F03B844FF0AD
:103BC000000300218DF82F3004F1010863780846C6
:103BD0000E460C464FF0FF32019208F10108A3F1A6
:103BE0002002582A00F28B83DFE812F03D0389039C
:103BF00089034503890389038903890389038903A9
:103C00007E006B028903860070028903CC015D028D
:103C10005D025D025D025D025D025D025D025D02AC
:103C20008903890389038903890389038903890334
:103C300089038903D10189038903890389038903DE
:103C4000890389038903890389031A028903890384
:103C5000890389038903E50289038903080389032A
:103C600089038903890389038903890389038903F4
:103C700089032B0382038903890389035E0382037B
:103C8000890389036303890370038D028B00E002BB
:103C9000890393028903B202890389034A030BF162
:103CA000080B029B2B44029385E70099059800F0CE
:103CB00057FE002840F04585009B9A8902F01A02C1
:103CC0000A2A7FF44BAF0099B1F90E30002BFFF6B2
:103CD00045AF23464246059800F00CFE2BB0BDE8E8
:103CE000F08F00F0E9FF1EE7049A134614680433CE
:103CF000002C049302DA644246F0040698F800307F
:103D00006BE74FF0000304988DF82F300346302105
:103D10008DF8301001997822002906948DF8312011
:103D2000046803F104034FF0000546F00202C0F2FC
:103D30000C8526F0800654EA050246F0020604933C
:103D400040F0B584B348019B002B40F06284994653
:103D50005746002301930393019B039A9342B8BFF4
:103D600013461D46B9F1000F00D0013516F00203CD
:103D7000079318BF023516F08403089340F0E882D9
:103D8000069B5C1B002C40F3E382102C40F33C8527
:103D9000DFF88492DDF838E0DC460F9AC346102342
:103DA000A84670464D46DDF8149007E000F1020E7B
:103DB00008460CF1080C103C102C13DD411C10328D
:103DC00007290F92CCF80050CCF804300E91EDDDAD
:103DD000002A40F0A582103C102C10464FF0010E36
:103DE000D446EBDCA94670464546D846E346224415
:103DF00007280F92CBF80090CBF804400E9000F308
:103E00006D839DF82F300BF1080B00F1010E002B94
:103E100040F0A782079B002B00F0BA8202320CA967
:103E20000223BEF1070F0F92CDF838E08BE80A00AD
:103E300040F37083002A40F00084089B4FF0010E8D
:103E4000802B1046D34640F0A782069B5C1B002CBB
:103E500040F3A282102C40F3F884DFF8C091DE46D4
:103E60001023C346A8464D46DDF8149007E000F144
:103E7000020C08460EF1080E103C102C13DD411CFC
:103E8000103207290F92CEF80050CEF804300E9170
:103E9000EDDD002A40F00C83103C102C4FF0010C9B
:103EA0001046D646EBDCA9464546D846F3462244A2
:103EB000BCF1070F0F92CBF80090CBF80440CDF87F
:103EC00038C000F3C883019B03990BF1080B5C1AFF
:103ED000002C0CF1010E604600F364820399BEF1E0
:103EE000070F0A440F92CBF80070CBF80410CDF8FE
:103EF00038E040F3C582002A40F0328370070E920A
:103F000038D5069B5C1B002C34DDD346102C40F3C7
:103F10009684DFF804910E994F461026DDF8149030
:103F200006E0881C19460BF1080B103C102C13DD21
:103F30004B1C1032072B0F92CBF80070CBF80460AB
:103F40000E93EEDD002A40F08582103C102C4FF0DD
:103F500001001146D346EBDCB946224407280F92F4
:103F6000CBF80090CBF804400E9040F39282002AE8
:103F700040F00C84029B069AAA42ACBF9B185B19C6
:103F8000029390E246F0800698F8003025E6069409
:103F9000002940F0858446F01006B30640F1048302
:103FA0000499073121F00701D1E9002314461D4689
:103FB00008310491002A73F10003C0F27C83019B55
:103FC0009DF82F90002BC0F20B8354EA050326F0D6
:103FD000800600F0DE80002D08BF0A2CC0F0DE80D5
:103FE0005746204629460A22002302F0F3F93032D0
:103FF00007F8012D2046294600230A2202F0EAF99B
:1040000004460D4654EA0503EBD1C7EB0A030393BC
:10401000A2E600BFB0670800CC6708008C67080004
:104020000694002940F0388446F0100616F020036C
:1040300000F0A1824FF00002049B8DF82F2007337F
:1040400023F0070303F10802D3E90045019B049222
:10405000002B0ADB54EA050326F0800605D1019BFC
:10406000002B00F02784002400254FF0000957465C
:10407000E20842EA4572E90804F007030D461446D7
:10408000303354EA050207F8013DF1D1F407BCD5FD
:10409000302BBAD030227B1E07F8012CC3EB0A026A
:1040A00003921F4658E6A3F13002002418F8013BA2
:1040B00004EB840402EB4404A3F13002092AF5D98D
:1040C0008DE598F8003001212B2086E598F8003026
:1040D00008F101052A2B00F0CC83A3F13002092A54
:1040E000A84698BF002500F2B58318F8013B05EB00
:1040F000850502EB4505A3F13002092AF5D945EA09
:10410000E57201926BE5069400298FD08DF82F009F
:104110008CE74FF00003049A069417688DF82F304F
:10412000141D019B002F00F07F83002BC0F25383EE
:104130001A460021384601F04DFC002800F08E831D
:10414000C31B0393002304949DF82F90019303E66F
:104150000694002940F09D8316F0200934D116F012
:10416000100303D116F0400940F01F83049A002584
:1041700013461468019A8DF82F90002A03F1040366
:10418000C0F2278354EA050226F0800604937FF4E8
:1041900022AF019B002B3FF4DBAD00242AAF30346B
:1041A00007F8414DC7EB0A030393D5E546F0200617
:1041B00098F8003011E50694002940F0758346F028
:1041C000100616F02009CAD04FF00002049B8DF8AB
:1041D0002F20073323F0070303F10802D3E900453A
:1041E000019B0492002BC0F2F98154EA050326F0EA
:1041F00080064FF000097FF4EEAECAE7069400296E
:1042000040F05583B206B24841D5049A073222F0F5
:10421000070202F108010491D2E9004516F00109F4
:1042200000F07E8154EA050240F02B824FF000033B
:104230008DF82F30019B002BC0F2F38226F0800610
:1042400081E5049A4FF00001136801258DF8403094
:104250001346043306948DF82F100493039510AF82
:104260000023019382E598F8003000287FF4B5AC74
:1042700001212020B1E446F0010698F80030ACE4BA
:104280000694002940F02A83B2069248BDD40499CE
:10429000F7060A4600F19D81750640F19A810432C5
:1042A0000C8804920025B9E746F0400698F80030E3
:1042B00093E498F800306C2B03BF98F8013046F077
:1042C000200608F1010846F0100686E4002940F0B7
:1042D0000283B40640F12082049A13460433049307
:1042E000029B1168DD171A462B46C1E900233EE404
:1042F000069400293FF451AE8DF82F004DE6069448
:10430000002940F0E582002B00F094808DF84030C9
:104310004FF0000301258DF82F30039510AF9FE774
:104320000DAA009948460993FFF7B4FB002840F016
:1043300088800E98D4460F9A00F1010E099B3AE549
:104340000DAA00990598FFF7A5FB002879D1D3465F
:104350000E989DF82F300F9A00F1010E002B3FF4BC
:1043600059AD01320DF12F010123BEF1070F0F925C
:10437000CDF838E08BE80A0040F3C080002A40F016
:104380004D810799002940F0BF809E461046D346D4
:10439000089B802B3FF459AD019B03995C1A002CBC
:1043A0007FF79CAD102CDFF8309125DDDC46102323
:1043B000C346A8464D46DDF8149007E000F1020E12
:1043C00008460CF1080C103C102C11DD411C103279
:1043D00007290F92CCF80050CCF804300E91EDDD97
:1043E000D2B9103C102C4FF0010E1046D446EDDC33
:1043F000A9464546D846E3462244BEF1070F0F9230
:10440000CBF80090CBF80440CDF838E02EDC0BF16F
:10441000080B0EF1010E61E50DAA009948460193C3
:10442000FFF738FB68B90E98D4460F9A00F1010ED9
:10443000019BC8E70F9B23B105980DAA0099FFF7D0
:1044400029FB009B9B895A0600F17B8102982BB0C7
:10445000BDE8F08F0DAA00994846FFF71BFB002826
:10446000EFD10E99D3460F9A481C5EE5002A40F022
:10447000FA80D346039A01231B920F921A970E9348
:104480000BF1080B710704D5069B5C1B002C3FF752
:104490003DAD029B0699A942ACBF5B185B19029324
:1044A000002A40F0AD8000230E93D346FFF75FBB98
:1044B0000DAA009948460793FFF7ECFA0028C0D1EF
:1044C0000E98D6460F9A00F1010C079BD4E400BF6A
:1044D0009C670800B06708008C670800002A7FF41A
:1044E0002FAF9DF82F30002B00F0F38001231A46E8
:1044F0009E46D3460DF12F011B931A9170460BF186
:10450000080B0EF1010E85E49E46D3460CA902224B
:104510001A911B9270460BF1080B0EF1010E37E752
:10452000019B8DF82F90002BC0F21B8154EA0503EC
:1045300026F080063FF407AC5746230943EA05738B
:10454000290904F00F020D461C46835C07F8013D63
:1045500054EA0503F1D1C7EB0A030393FFF7FCBB51
:104560000DAA00990598FFF795FA00287FF469AF26
:10457000D3460F9A86E716F0100200F0B580049932
:104580008DF82F300A460C680199043200294FF04B
:104590000005C0F2528154EA050126F0800604921B
:1045A0003FF45DAD994662E5049AF706134609D4D7
:1045B000750607D5B2F900400433E5170493224687
:1045C0002B46F7E41C680433E517049322462B4678
:1045D000F0E414680432049200251FE64FF000094D
:1045E00054EA05037FF4F7ACD8E50DAA00990598C5
:1045F000FFF750FA00287FF424AFD346FFF751BBF2
:104600000DAA00990598FFF745FA00283FF44BAF33
:1046100017E7002400254FF000098DE70DAA009947
:104620000598FFF737FA00287FF40BAF0E98D346B2
:104630000F9A00F1010EFFF7EDBB0DAA0099059846
:10464000FFF728FA00287FF4FCAE0E98D3460F9AA5
:1046500000F1010E9CE6002A40F0C8804FF0010EE8
:104660001046D34698E60DAA00990598FFF712FA6E
:1046700000287FF4E6AE0E9BD3460F9A03F1010E9D
:104680002CE48DF831304FF0000330228DF83020CB
:10469000019A8DF82F30002A46F00203C0F2BB8049
:1046A00026F0800646F002064FF0000944E74FF07E
:1046B00000098C4840E7019B64424FF02D0965EBEF
:1046C0004505002B8DF82F90FFF685AC26F080066F
:1046D00081E4079B002B63D00CAB02221A931B9240
:1046E0004FF0010ED34615E716F040093BD0049970
:1046F0008DF82F200B460C880199043300294FF0C8
:104700000005C0F28C8054EA050126F0800604936F
:104710003FF4A5AC9146AAE4F0060AD4710608D588
:10472000049A136804320492BDF808201A80FFF737
:104730001EBA049A136804320492029A1A60FFF7B0
:1047400016BA4FF0FF30FFF7C9BA1646654854EA6B
:10475000050204934FF000097FF4EEAE002400251B
:10476000EAE6049BF3E7049A8DF82F901346146849
:10477000019A0433002A4FF0000550DB54EA050289
:1047800026F0800604937FF472AC68E40DAA0099C9
:104790000598FFF77FF900287FF453AE0F9A78E66B
:1047A00010464FF0010ED346F6E504998DF82F30F0
:1047B0000A460C880199043200294FF0000555DBA8
:1047C00054EA050126F08006049299467FF403AC72
:1047D000DFE4049304E738460494FFF72DF900233F
:1047E00003909DF82F900193FFF7B6BA0DAA009998
:1047F0000598FFF74FF900287FF423AE0E98D346B3
:104800000F9A00F1010EC7E50E980F9A0130DFF8FC
:10481000DC90FFF7ECBA1E464FF000098CE60493DB
:1048200023E44FF0000999E7062B28BF06230393E2
:10483000049423EAE3752C4F12E5049215E40E98D4
:10484000DFF8A8900130FFF788BBF446DFF8A090AE
:10485000FFF72DBB00220192FFF7C1B9019B049421
:10486000039301909DF82F90FFF776BA0492994632
:10487000B6E6049A13680432002B0193049298F868
:104880000130A846BFF6A9A94FF0FF320192FFF709
:10489000A4B98DF82F005FE48DF82F00FFF7C4BB9B
:1048A0008DF82F00FFF777BB8DF82F0087E48DF888
:1048B0002F00A7E49946F30705D52AAF302307F860
:1048C000413DFFF7A2BB019B57460393FFF744BA54
:1048D0008DF82F0017E58DF82F00FAE48DF82F00E2
:1048E000D2E400BFB0670800C4670800CC670800C6
:1048F0008C670800F0B50C468989ADF26C4D656E89
:1049000021F00201666AADF80C10E169E78919959A
:1049100000250791099606951AAE4FF48065694601
:104920000096049602950595ADF80E700646FFF7C1
:10493000EDF8051E07DB3046694600F029F900282E
:1049400018BF4FF0FF35BDF80C305B0603D5A389C7
:1049500043F04003A38128460DF26C4DF0BD00BF2B
:1049600038B5304B054618680C4610B1836B002BE8
:1049700038D0B4F90C2093B218070CD52069A8B12F
:1049800013F001021ED0636900225B42A361A260A2
:10499000F0B1002038BDD9063BD5580725D4206991
:1049A00042F00803A3819BB20028E9D103F42072EE
:1049B000B2F5007FE4D02846214600F013FDA3891C
:1049C0002069DDE7990758BF6269A2600028E0D13D
:1049D000B4F90C301A06DDD543F04003A3814FF043
:1049E000FF3038BD00F068F9C3E7216B51B104F125
:1049F0004003994204D0284600F026FAB4F90C206E
:104A0000002323632069002322F0240284E80900A4
:104A1000C6E742F0400209232B604FF0FF30A2812D
:104A200038BD00BF30080720024B13B1024800F028
:104A300005B8704700000000CD4C08000023014677
:104A40001A46184601F0CEBBB1F90C302DE9F04101
:104A50009AB20D46110780463CD46A6843F400635D
:104A6000002AAB8173DDAC6A002C4BD09BB203F4FF
:104A70008052002192B2D8F80060C8F80010002AD5
:104A800069D02A6D5F0705D569682B6B521A0BB187
:104A9000EB6BD21A0023E9694046A047441C3CD086
:104AA000B5F90C30296923F400630022AB81DB04E3
:104AB00085E8060049D4296BC8F8006011B305F1F8
:104AC0004003994202D0404600F0BEF9002028631E
:104AD000BDE8F0812E69AEB190072C680CBF6B6900
:104AE00000232E60A41BAB600AE0234632466F6AA7
:104AF000E9694046B8470028A4EB0004064404DDF9
:104B0000002CF2DC0020BDE8F081AB894FF0FF30D3
:104B100043F04003AB81BDE8F081D8F800201D2AA6
:104B2000F3D81A4BD34003F0010383F00104002BA8
:104B3000EBD0B5F90C30296923F400632960D9045E
:104B40006C60AB81B7D5002AB5D12865B3E7EA6BB5
:104B5000002A88DCD6E70123E9694046A047431CC8
:104B6000024602D0AB89AC6A8CE7D8F80030002B43
:104B7000F8D01D2B01D0162B02D1C8F80060C1E778
:104B8000AB8943F04003AB81BDE8F08101004020D8
:104B900010B5044682B008B1836B53B1B1F90C0073
:104BA00008B902B010BD204602B0BDE81040FFF7C2
:104BB0004BBF019100F080F80199EFE7014900F047
:104BC000AFBB00BFAD6208002DE9F04F0746354886
:104BD0007D68002407F53B7204230321F863C7F8BE
:104BE000E412C7F8E822C7F8E04283B02C606C609A
:104BF000AC606C66EC812C616C61AC61AB81214670
:104C000005F15C000822FEF719FEDFF89CB0BE68D3
:104C1000DFF898A0DFF89890DFF898800123092248
:104C2000C5F820B0C5F824A0C5F82890C5F82C8098
:104C3000ED612146F381B28106F15C00346074605D
:104C4000B460746634617461B46108220193FEF744
:104C5000F5FDFD6812200222F661C6F820B0C6F804
:104C600024A0C6F82890C6F82C802146A881EA81A5
:104C70002C606C60AC606C662C616C61AC6105F1A1
:104C80005C000822FEF7DAFD019BED61C5F820B05B
:104C9000C5F824A0C5F82890C5F82C80BB6303B0E4
:104CA000BDE8F08FBD4B08001560080039600800B2
:104CB0007560080095600800836B03B17047FFF7CB
:104CC00083BF00BF704700BF704700BF38B5074DB6
:104CD000074C2C1BA41005D0013C55F8043D984707
:104CE000002CF9D1BDE8384001F082BD0068080011
:104CF000FC6708002DE9F04182B006460F461446D5
:104D000000F03AFB012832D004F15C033A4601A9D5
:104D1000304601F019FAB0F1FF3F804620D070B361
:104D20009DF80410002508E023685A1C22601970C1
:104D30000135454523D201AB595DA368013B002BEA
:104D4000A360F1DAA269934201DB0A29ECD1224681
:104D5000304601F0A3F9431CEAD102B0BDE8F0816E
:104D6000A38943F04003A38102B0BDE8F0817B1E1C
:104D7000FE2BC9D8F9B280468DF80410D2E7384628
:104D800002B0BDE8F08100BFB2F90C3013F4005F4F
:104D90000AD110B4546E43F4005344F400545466E2
:104DA000938110BCFFF7A6BFFFF7A4BFF8B50C4670
:104DB000224F064600F02EFFBB685D6825F0030514
:104DC000291B01F6EF7121F47F6121F00F01A1F59C
:104DD0008054B4F5805F07DB0021304601F008F90C
:104DE000BB682B44984204D0304600F015FF0020E9
:104DF000F8BD6142304601F0FBF801300DD0104B98
:104E0000BA6819682D1B45F001053046091B55602D
:104E1000196000F001FF0120F8BD0021304601F0CB
:104E2000E7F8BA68831A0F2BDEDD064C04492468C4
:104E300043F00103001B53600860D5E758080720C2
:104E4000900D0720640C0720002945D02DE9F04182
:104E50000D46804600F0DEFE55F8047C6A49A5F157
:104E6000080427F00103E2188E685068B24220F06F
:104E7000030062D0FE0750600BD455F8087C01F1A6
:104E8000080EE41BA5683B4475456FD0E768EF60EA
:104E9000BD6015186D68ED0742D543F001026260F0
:104EA000E350B3F5007F18D2DB0848689D1001225B
:104EB000013351F8337002FA05F501EBC3022843C0
:104EC000083AE260A760486041F83340FC60404621
:104ED000BDE8F04100F0A0BE70475A0A042A53D83A
:104EE0009A0902F139077F0002F1380501EB8700CA
:104EF00051F827200838904243494DD0516821F09D
:104F000003018B4202D292689042F7D1D068E060F0
:104F1000A2608460D4604046BDE8F04100F07CBEF1
:104F200095683A4F0344BD423FD0D06843F0010238
:104F3000E86085606260E350B3E7FF07034407D48D
:104F400055F8085C641BE268A0682B44C26090605E
:104F50002F4A43F001001268606093428C60B6D320
:104F60002C4B40461968FFF721FFB0E7111849683C
:104F7000C90744D491680344D26843F00100CA6071
:104F800091606060E350A2E7142A17D802F15C0731
:104F90007F0002F15B05A9E7AA104B68012505FA1D
:104FA00002F213434B600246B1E743F001024C6149
:104FB0000C61E560A5606260E35088E7542A06D87A
:104FC0001A0B02F16F077F0002F16E058EE7B2F552
:104FD000AA7F06D8DA0B02F178077F0002F1770585
:104FE00084E740F25450824206D89A0C02F17D07C1
:104FF0007F0002F17C0579E7FE277E2576E743F006
:1050000001026260E35062E7580807206008072049
:10501000600C07208C0D07209368002B00F0AB80FC
:105020002DE9F04F8B8985B00C4619070290164682
:1050300028D5226932B303F002081FFA88F03568D8
:1050400078B34FF00009C846DFF8D0A2B8F1000FDE
:1050500000F08B80D04543464A4628BF5346E1695D
:105060000298676AB847002840F3A580B368814476
:105070001B1AC0EB0808B360002BE7D1002005B075
:10508000BDE8F08F21460298FFF76AFC002840F047
:105090003C81A389356803F002081FFA88F00028D4
:1050A000CFD113F0010940F090804F460196002FB8
:1050B00056D09A05D4F808805FD54745C246C0F05F
:1050C000BF8013F4906F00F0BD8062692068216991
:1050D00002EB4208C1EB000A08EBD8780AF10100A4
:1050E0004FEA680838444045424684BF80464246FD
:1050F0005B0540F1F2801146029800F0BFF983464B
:10510000002800F005815246216900F0A9FCA3891E
:1051100023F4906343F08003A381CAEB08030BEBF5
:105120000A00C4F81480BA46B846C4F810B020602B
:10513000A3605246494600F009FDA0682368C8EB09
:105140000000A060384653442360019A814493686C
:105150003F1A1B1A9360002B90D0A389002FA8D16F
:10516000D5F800906F680835A1E7D5F80090D5F81C
:10517000048008356AE70020704720682369984258
:1051800003D86269974280F08380B84528BFB8464B
:105190004946424600F0DAFCA3682268C8EB0303E4
:1051A0004244A3602260002B48D121460298FFF7B9
:1051B000EFFC002842D0B4F90C3043F040034FF02C
:1051C000FF30A38105B0BDE8F08F8046824681465E
:1051D0000190B9F1000F29D0019B002B4BD0C8459D
:1051E000C34628BFCB46206823695F469842626960
:1051F00003D9A36813449B455CDC934524DB134629
:10520000676A5246E1690298B847071ED3DDB8EBDA
:10521000070827D0B368BA44DB1BC7EB0909B360A2
:10522000002B3FF42BAFB9F1000FD5D10023D5F8F7
:1052300000A0D5F8049001930835CAE7404684E7FA
:10524000B846BA46206874E75A46514600F07EFCDC
:10525000A2682368CBEB02025B44B8EB0708A260AC
:105260002360D7D121460298FFF792FC0028A2D1F3
:10527000CDF80480CEE74A460A21504600F0AAFB4A
:1052800000283DD001300123CAEB00080193A6E7B6
:105290006FF00043BB4228BF3B4693FBF2F3E1694A
:1052A00002FB03F302984A46666AB04700283FF7BC
:1052B0004CAF80E71A465146039300F047FC226842
:1052C000039B21461A4422600298FFF761FC039B6E
:1052D00000287FF470AF1F4699E7029800F09EFC0B
:1052E000834600287FF419AF029D21692846FFF705
:1052F000ABFDB4F90C300C2223F080032A605CE78C
:10530000012309F10108019369E74FF0FF30B6E688
:10531000029A0C231360B4F90C304EE700FCFF7FB7
:105320002DE9F84310F538761ED0884607464FF031
:1053300000097568B468013D10D4A389013D012BB3
:1053400008D9B4F90E30013304D021463846C0479D
:1053500049EA00096B1C04F16804EED13668002E9E
:10536000E7D14846BDE8F883B1464846BDE8F88332
:105370000048704734080720014B1868704700BF89
:105380005408072070B50E46B1F90E1090B00029F0
:1053900014461D4614DB01AA00F0CAFF00280FDBEB
:1053A000029A4FF4806302F47042A2F50052B2FAFE
:1053B00082F24FF4006052092A60236010B070BD81
:1053C000B289002002F0800292B228601AB1402314
:1053D000236010B070BD10464FF48063236010B09E
:1053E00070BD00BF8A890B46920706D501F14302C2
:1053F00001211A601A6159617047F0B583B001ABA1
:105400006A460C460546FFF7BDFF0099064628464A
:1054100000F034F8B4F90C30D0B19DE80600124F1A
:1054200043F08003EF63A3812060206161611AB9BA
:105430003343A38103B0F0BD2846B4F90E1000F049
:105440008BFFB4F90C300028F2D043F00103EFE7F2
:105450009A05EFD404F1430243F002030121A38132
:10546000226022616161E5E7BD4B0800024B014605
:10547000186800F003B800BF300807202DE9F04F8E
:1054800001F10B05162D83B0064640F2A08035F0E1
:10549000070500F1C080A94200F2BD8000F0BAFB10
:1054A000B5F5FC7FC0F090826B0A00F0BB80042B46
:1054B00000F27781A80900F1390E4FEA4E01383029
:1054C000BE4F07EB81014C680839A14207D1AEE01D
:1054D000002A80F2AE80E468A14200F0A8806368F0
:1054E00023F003035A1B0F2AF2DDB4493C6901F192
:1054F000080E744500F0A881636823F003035A1B6B
:105500000F2A00F38E81002AC1F814E0C1F810E0E0
:1055100080F29380B3F5007F80F05C81DB084A68FD
:105520004FEAA3094FF0010C013351F833800CFA14
:1055300009F901EBC30C49EA0202ACF1080CC4F80A
:105540000CC0C4F808804A6041F83340C8F80C40E9
:10555000831001249C4094427CD8144206D120F050
:1055600003006400144200F10400FAD007EBC00904
:10557000CC468046DCF80C108C4507D166E1002A49
:1055800080F27481C9688C4500F060814B6823F01B
:1055900003035A1B0F2AF2DD0C46CB6854F808CFE0
:1055A00045F00108C1F804800D4442F00101CCF837
:1055B0000C303046C3F808C07D613D61C5F80CE091
:1055C000C5F808E06960AA5000F026FB1FE010292A
:1055D00021D800F01FFB102506230220774F07EB90
:1055E00083035C68A3F10802944200F03881636889
:1055F000E16823F0030323445A68A56842F00102DE
:10560000E96030468D605A6000F006FB08342046A1
:1056100003B0BDE8F08F002420460C23336003B0B4
:10562000BDE8F08F80214FF0400E3F2048E77046E4
:105630005BE723445A68E168DFE723445A68304651
:1056400042F001025A60083400F0E6FA204603B046
:10565000BDE8F08FBC68636823F00308A84504D355
:10566000C5EB08030F2B00F38C80554BDFF86091DE
:105670001A68D9F800302A44013304EB080A00F014
:10568000608102F580520F3222F47F6222F00F0215
:1056900011463046019200F0ABFCB0F1FF3F83466B
:1056A000019A00F05881824500F2FC80454BDA45B2
:1056B00019681144196000F05381D9F80000DFF82F
:1056C00010E101301BBFCAEB0B0A5144CEF800B009
:1056D00019601BF0070100F01781C1F10800C1F546
:1056E0008051834408315A44C2F30B02C2EB0109D2
:1056F00049463046019300F07BFC431C019B00F0BF
:105700003F81CBEB00024A4442F001021968BC42DF
:105710004944C7F808B01960CBF80420DFF8A4901A
:1057200016D0B8F10F0F40F2FD806268A8F10C03AB
:1057300023F0070302F00102E0184FF0050E1A43B0
:105740000F2B6260C0F804E0C0F808E000F21C8192
:105750001D4BBC681A68914288BF19601B4B1A68C0
:105760009142626888BF196022F003029542A2EB61
:10577000050301D80F2B04DC304600F04DFA00245D
:1057800045E745F0010243F00103254462603046DD
:10579000BD6008346B6000F03FFA204603B0BDE8FE
:1057A000F08F142B71D9542B00F2A480280B00F138
:1057B0006F0E4FEA4E016E3082E600BF5808072098
:1057C0008C0D0720900D0720880D0720840D0720E1
:1057D000640C07205A0A042A5ED9142A00F2B38006
:1057E00002F15C0149005B3207EB810C57F8211094
:1057F000ACF1080C8C45DFF8D88100F088804A684D
:1058000022F00302934202D289688C45F7D1D1F885
:105810000CC07A68C4F80CC0A160CCF80840CC6019
:1058200096E645F0010742F00103254467603046E3
:105830004D610D61C5F80CE0C5F808E06B60AA5039
:10584000083400F0E9F9E2E64A6881E608F1010867
:1058500018F0030F0CF1080C7FF48CAE30E0DC681C
:10586000A34208BF02303FF440AEC0E60C460B44F2
:105870005A68C96854F8085F42F001025A6030461D
:10588000E9608D6000F0C8F9C1E603F15C0E03F138
:105890005B004FEA4E0113E69A0902F13901490013
:1058A0003832A1E7BC424A4B3FF400AF9C686268C3
:1058B00022F003025AE759F80839994540F08280EE
:1058C00010F0030F00F1FF30F5D17B6823EA0403E9
:1058D0007B6064009C423FF6BDAE002C3FF4BAAE44
:1058E0001C4240467FF442AE64001C4200F10400BA
:1058F000FAD03BE6B3F5AA7F18D8E80B00F1780E92
:105900004FEA4E017730DBE54FF48051EBE60121A1
:10591000D8F80430921001FA02F21A43C8F80420B1
:10592000614677E70123CBF8043025E740F2545273
:10593000934220D8A80C00F17D0E4FEA4E017C3036
:10594000BEE51032A4E6542A26D81A0B02F16F01E4
:1059500049006E3248E7BC68626822F0030205E73E
:10596000CAF30B0000287FF4A8AE4244BB6842F0A3
:1059700001025A60ECE6FE214FF07F0E7E209FE58B
:1059800001224FF00009C1E604F108013046FFF79B
:105990005BFAD9F80010DBE6B2F5AA7F05D8DA0B7E
:1059A00002F17801490077321EE740F254518A42F1
:1059B00005D89A0C02F17D0149007C3214E7FE21E2
:1059C0007E2211E77B6884E7E808431C5B0005E65C
:1059D00058080720830770B4CDB23DD0531E02B3E0
:1059E0000278AA421ED0421C04E0D3B10478013BE5
:1059F000AC4217D012F0030F104602F10102F4D1AD
:105A0000032B11D853B30278AA420BD00344421C93
:105A100002E00178A94205D09342104602F101024A
:105A2000F7D1002070BC704704460E0206F47F4692
:105A30002E4346EA0646226820467240A2F1013112
:105A400021EA020212F0803F04F10404DBD1043B9E
:105A5000032B2046EFD8D5E71346D1E71846E1E7F8
:105A6000844641EA000313F0030349D1403A23D3AB
:105A70000B6803604B6843608B688360CB68C360CE
:105A80000B6903614B6943618B698361CB69C361B6
:105A90000B6A03624B6A43628B6A8362CB6AC3629E
:105AA0000B6B03634B6B43638B6B8363CB6BC36386
:105AB00040304031403ADBD230320BD30B680360C8
:105AC0004B6843608B688360CB68C36010301031D3
:105AD000103AF3D20C3205D351F8043B40F8043BA2
