:0200000280007C
:100000003848072011B3090009B3090009B30900F2
:1000100009B3090009B3090009B309000000000091
:1000200000000000000000000000000009B309000B
:1000300009B309000000000009B30900FD720900BE
:1000400009B3090009B3090009B3090009B309009C
:1000500009B3090009B3090009B3090009B309008C
:100060004D72090009B309000000000021AB09002E
:1000700039AB090051AB090069AB09000000000071
:100080000000000009B3090009B3090009B3090021
:1000900009B3090009B3090009B3090009B309004C
:1000A00009B309000000000009B3090089720900C2
:1000B000DDC1090009B30900DD72090009B30900B7
:1000C00009B30900BD72090009B3090009B30900A9
:1000D00009B3090009B3090009B3090009B309000C
:1000E00009B3090009B3090009B3090099640900BB
:1000F00009B3090010B5054C237833B9044B13B18B
:100100000448AFF300800123237010BD04160720BC
:1001100000000000DC8D0A00084B10B51BB1084838
:100120000849AFF300800848036803B910BD074BC6
:10013000002BFBD0BDE81040184700BF00000000B6
:10014000DC8D0A0008160720DC8D0A000000000084
:1001500080B582B000AF78607B68072B30D801A2F1
:1001600052F823F0C1010800850108008D01080044
:10017000950108009D010800A5010800AD010800D7
:10018000B70108000020104B984719E001200E4BE2
:10019000984715E000200D4B984711E010200B4BBD
:1001A00098470DE02020094B984709E000203E21A8
:1001B000074B984704E001203E21054B984700BFBC
:1001C0000837BD4680BD00BF05AC090071AC090011
:1001D00011AD090080B582B000AF78607B68072B55
:1001E00026D801A252F823F0090208000D020800E7
:1001F0000D0208001F0208001F0208001F0208006D
:100200001F0208001F020800012312E00B4B984751
:100210000346002B14BF01230023DBB209E0084B87
:1002200098470346002B14BF01230023DBB200E0F4
:10023000002318460837BD4680BD00BF3DAC09000D
:1002400089AD090080B483B000AF78607B68072B6C
:1002500025D801A252F823F0790208007F02080095
:10026000850208008B0208008F0208009302080034
:10027000970208009B0208004FF4FA4310E04FF485
:1002800000430DE04FF400430AE0084B08E0084B40
:1002900006E0084B04E0074B02E0064B00E00023B9
:1002A00018460C37BD465DF8047B704700093D00D9
:1002B00000127A00001BB70080B582B000AF034681
:1002C000FB7100BFFB791846054B9847034683F046
:1002D0000103DBB2002BF5D10837BD4680BD00BF5E
:1002E000D501080080B586B000AFF8607A603B6049
:1002F0000B46FB727B68002B07D13B68002B04D1B7
:10030000FB684FF470021A6019E0FB7A18460D4B37
:10031000984702467B68B2FBF3F37B617B693A68DE
:1003200002FB03F37B613B68013B1A04064B13405D
:100330007A68D2B2134343F47C52FB681A601837D0
:10034000BD4680BD450208000000FF0780B582B0B1
:1003500000AF786039603B68002B08D1084B9847A4
:10036000084A7B681B6843F00053936205E0054A26
:100370007B681B6843F48033D3610837BD4680BD7A
:10038000A5AD090000060E4080B582B000AF7860D0
:100390007B68002B03D1054B9847034602E0044BD2
:1003A0009847034618460837BD4680BDBDAD0900D5
:1003B000D9AD090080B582B000AF0346FB71FB796F
:1003C000033B042B08D8FB791846054B9847FB796B
:1003D0001846044B984700E000BF0837BD4680BD73
:1003E00051010800B902080080B582B000AF786002
:1003F00000BF7868044B98470346002BF9D00023D0
:1004000018460837BD4680BD8903080080B500AF97
:100410000620044B984702461346DB009B1A5B00FC
:10042000184680BD4502080080B500AF024B9847D2
:1004300003465B08184680BD0D04080090B583B0E4
:1004400000AF104B9847034618460F4B98470620BD
:100450000E4B98473B1D1846062101220E230C4CDB
:10046000A0473B1D184600210A4B984700200A4B25
:1004700098471020094B9847094B98470C37BD46C1
:1004800090BD00BF2904080039B50900B503080074
:10049000E50208004D030800E903080081AB0900EC
:1004A000B9B3090080B584B000AFF860B9607A6074
:1004B0007B681B0203F47062BB681343F86819463B
:1004C000034B9847002318461037BD4680BD00BF38
:1004D000B900072080B584B000AF786039607B68D0
:1004E0001B6823F47063FB603B681B0203F47062BB
:1004F000FB68134378681946024B98471037BD468E
:1005000080BD00BFB900072080B483B000AF786021
:100510007B681B6803F470631B0A18460C37BD46E2
:100520005DF8047B704700BF80B586B000AFF8600F
:10053000B9607A60BB680E2B02D0BB680F2B02D16A
:100540004FF0FF3320E0FB68114A934214BF0123B0
:100550000023DBB27B610F4B1B681A460E4B1A60FF
:100560000D4B1A687B681B0223F07F4323F0FF03C7
:10057000B968C9B20B4343F0B44378691946904750
:10058000FB689B6803F0060318461837BD4680BD1C
:10059000000A0E40080010002016072080B483B027
:1005A00000AF78607B68DB6818460C37BD465DF8A5
:1005B000047B704780B582B000AF78607868024BEA
:1005C00098470837BD4680BDF5AD090080B582B0BB
:1005D00000AF78607B68044A934202D11820034B35
:1005E00098470837BD4680BD00800040B50508002B
:1005F00080B483B000AF78607B6808221A607B68A3
:1006000020221A607B6804221A600C37BD465DF810
:10061000047B704780B584B000AF786039600023F8
:10062000FB607B684FF0FF329A627B681B6A7868D8
:100630000F4B984778680F4B98473B685A683B6860
:100640001B68786811461A460B4B98470346012BE6
:1006500001D10123FB603B685B7A012B02D17B68EF
:1006600040221A60FB6818461037BD4680BD00BFA7
:10067000F9060800F10508007D06080080B487B07F
:1006800000AFF860B9607A6000237B61BB68184AEC
:10069000934201D9012324E0BB685B007A68B2FB76
:1006A000F3F3043B3B6105E07B6901337B613B690C
:1006B0005B083B613B69FF2B02D97B69062BF3D9B1
:1006C0000C4A3B6913603B69DAB23B691B029BB27F
:1006D0001A437B691B0403F4E0231A43FB681A6185
:1006E000002318461C37BD465DF8047B704700BFE9
:1006F000801A06002416072080B483B000AF78600B
:100700007B6880221A607B681B6B0C37BD465DF8E6
:10071000047B704780B487B000AFF860B9607A603E
:100720003B60BB68B3F5402F0BD3174B7B61BB68B5
:10073000A3F540231B0A7B82BB689BB2DBB23B82E2
:100740000AE0124B7B61BB68A3F500231B0A7B8286
:10075000BB689BB2DBB23B82FB68002B02D0FB681C
:100760007A691A607B68002B02D07B687A8A1A80CB
:100770003B68002B02D03B683A8A1A801C37BD4682
:100780005DF8047B704700BF000C0E40000A0E406D
:1007900080B487B000AFF8607B600B467B81134666
:1007A0003B81FB680D4A934206D17B8903F50063C8
:1007B0001A023B89134405E07B8903F540631A0262
:1007C0003B8913447B617B68002B02D07B687A698C
:1007D0001A601C37BD465DF8047B7047000A0E4066
:1007E00080B487B000AFF860B9607A603B60FB68A6
:1007F00023F47F5323F03F037B61BB6823F47F53D3
:1008000023F03F0303F57F533F333B617B68002BAD
:1008100002D07B687A691A603B68002B02D03B6883
:100820003A691A601C37BD465DF8047B704700BF0B
:1008300080B582B000AF78603960074879683A685F
:10084000064B9847064879683A68044B9847002356
:1008500018460837BD4680BD000A0E40A5040800B2
:10086000000C0E4090B58FB000AFF860B9607A60B0
:100870003B604D4BBB6207F1180107F1160207F10F
:1008800014030846F968494CA047BB691846484B11
:1008900098477862BB6918460621464B984776E030
:1008A000BB8AC3F580727B68934228BF13463B62C4
:1008B000B969FA8A07F110030846114600223E4C36
:1008C000A047BB8A5B429AB23B6A9BB2D31A9BB2E7
:1008D00003F58073FB833B691A46BB8AB86A1146ED
:1008E0001A46364B9847BB8A1A46BB6A13441846C9
:1008F000B9683A6A314B9847BB8A1A463B6A134437
:10090000BA6AD118BB8A1A463B691A443B6A134437
:100910001A46FB8B084611461A46284B98473B69F6
:10092000FB6200233B630AE0FB6A1A1DFA621E4960
:100930003A6B51F822201A603B6B01333B633B6BEF
:100940003F2BF1D93B68002B07D0BB69FA8A1846C8
:1009500003211B4B9847786306E0BB69FA8A184667
:100960000121174B984778637B6B002B01D07B6B81
:1009700016E0BA683B6A1344BB607A683B6AD31AD4
:100980007B60FB8A01339BB2FB820023BB827B68C6
:10099000002B85D1BB691846796A064B984700231E
:1009A00018463C37BD4690BD28160720150708009D
:1009B00009050800D504080091070800C16D0A0068
:1009C0002905080090B58BB000AFF860B9607A6077
:1009D0003B604023FB8407F1180207F11403F86819
:1009E000B9681E4CA0477B68002B02D0BA697B68AF
:1009F0001A603B68002B02D07A693B681A60BA69BA
:100A000007F11C0107F11203084611461A4600239C
:100A1000134CA0477A6907F11003002011461A46CB
:100A200000230F4CA04710E0FB697A8A1846082182
:100A30000C4B984738623B6A002B01D03B6A09E0B7
:100A40007A8AFB8C13449BB27B827A8A3B8A9A42D5
:100A5000EAD3002318462C37BD4690BDE1070800B5
:100A6000150708002905080090B58BB000AFF860A5
:100A7000B9607A603B604023FB8407F1180207F1FC
:100A80001403F868B9681E4CA0477B68002B02D09D
:100A9000BA697B681A603B68002B02D07A693B68B0
:100AA0001A60BA6907F11C0107F1120308461146E2
:100AB0001A460023134CA0477A6907F1100300205F
:100AC00011461A4600230F4CA04710E0FB697A8AB2
:100AD000184609210C4B984738623B6A002B01D01D
:100AE0003B6A09E07A8AFB8C13449BB27B827A8A48
:100AF0003B8A9A42EAD3002318462C37BD4690BD64
:100B0000E1070800150708002905080080B582B034
:100B100000AF78607B68022B01D9112312E078685E
:100B20000A4B98470346012B01D100230AE00848ED
:100B30000B217A68074B98470346002B01D100230D
:100B400000E0102318460837BD4680BD590B080049
:100B5000000A0E402905080080B584B000AF786017
:100B60007B68022B01D9112319E00F480D210022C7
:100B70000E4B98470346002B01D010230FE00A4884
:100B80000B4B9847F8607B68012202FA03F31A4680
:100B9000FB681340002B01D0012300E0002318461E
:100BA0001037BD4680BD00BF000A0E402905080071
:100BB0009D05080080B500AF0020024B9847034612
:100BC000184680BD0D0B080080B582B000AF04232D
:100BD000FB71104B98470346FB71FB79002B01D04A
:100BE0000D4B98470D4B98470346FB71FB79002B43
:100BF00001D0094B98470A4B98470346FB71FB7994
:100C0000002B01D0044B9847002318460837BD46F7
:100C100080BD00BF250C0800C18F08005D020900DF
:100C200081FD080080B400AF3C4B0D221A803B4B85
:100C30000E225A80394B00229A80384B42F21072B1
:100C4000DA80364B364A9A60344B364ADA60334B98
:100C5000334A1A61314B334A5A61304B324A9A61F6
:100C60002E4B324ADA612D4B2F4A1A622B4B2D4AFA
:100C70005A622A4B2E4A9A62284B2A4ADA62274B3A
:100C80002C4A9A63254B2C4ADA63244B2B4A1A646C
:100C9000224B294A5A64214B284A9A641F4B264A00
:100CA000DA641E4B264A1A651C4B42F21072A3F8F6
:100CB00054201A4B0022A3F85620184B42F210720F
:100CC000A3F85820154B0022A3F85A20134B42F2E8
:100CD0001072A3F85C20114B0022A3F85E200F4B8A
:100CE0000522A3F860200D4B1422A3F862200B4BC1
:100CF0001E22A3F86420094B0522A3F86620074BA7
:100D00001E22A3F86820054B0522A3F86A200023C1
:100D10001846BD465DF8047B704700BF04210720DC
:100D20000000FA43000096C30000C843000048C317
:100D300000007A44000014420000C8410000A042B4
:100D400000003442000000002DE990438BB000AF5A
:100D5000042387F827300023FB809D4B5B8C1A46C9
:100D600040F6E44303FB02F3002B01DA03F6FF73C2
:100D70001B131A46974B1046984703463B62964B07
:100D8000386A984703469BB21BB21846934B984764
:100D9000934B93F83A30002B17D018209149052235
:100DA000914B9847034687F8273097F82730002B58
:100DB00001D08E4B98478A4B1B8F1AB2854B104639
:100DC000984702468A4B1A603AE03B1D0E201946AE
:100DD000884B9847BB8847F60C62934209D9BB8879
:100DE000A3F580327B4B104698470246804B1A6031
:100DF00006E0BA88804B1046984702467C4B1A6042
:100E00007B4B1A687D4B1046984702460B467C4C3C
:100E1000104619466AA3D3E90023A04702460B46B1
:100E2000784C1046194668A3D3E90023A047024630
:100E30000B4610461946744B984702466C4B1A6095
:100E4000634B9B8C1A4640F6E44303FB02F3002BF2
:100E500001DA03F6FF731B131A465E4B10469847E0
:100E600003463B625C4B386A984703469BB21BB211
:100E70001846664B98475A4B93F83E30002B17D0D4
:100E8000182063490522584B9847034687F82730B6
:100E900097F82730002B01D0544B9847504B9B8F2D
:100EA0001AB24C4B1046984702465A4B1A603AE029
:100EB000BB1C0E2019464F4B98477B8847F60C62A7
:100EC000934209D97B88A3F58032424B104698475C
:100ED0000246504B1A6006E07A88474B1046984706
:100EE00002464C4B1A604B4B1A68444B10469847CD
:100EF00002460B46424C1046194631A3D3E9002363
:100F0000A04702460B463F4C104619462EA3D3E994
:100F10000023A04702460B46104619463A4B984715
:100F200002463C4B1A602A4BDB8C1A4640F6E443DF
:100F300003FB02F3002B01DA03F6FF731B131A46BF
:100F4000244B1046984703463B62234B386A984728
:100F500003469BB21BB218462F4B9847204B93F881
:100F60004230002B18D018202C4905221E4B9847E0
:100F7000034687F8273097F82730002B01D01B4B0A
:100F80009847174BB3F840301AB2124B10469847A7
:100F90000246234B1A606CE03B460E201946154B67
:100FA00098473B8847F60C6293423BD93B88A3F5B0
:100FB0008032084B104698470246194B1A6038E0B9
:100FC0001844A4A65D4CB73F62105839B4BC7E40AB
:100FD00024220720B1680A00E56C0A000D440800CD
:100FE000C025072064880A0051BA0900C18F080093
:100FF00040170720F9E70800A9680A0031600A00D5
:10100000D9600A00755D0A009D660A00294508003E
:101010006C880A00441707204546080074880A00B7
:10102000481707203A888E4B1046984702468D4B4A
:101030001A608C4B1A688C4B1046984702460B4638
:101040008A4C1046194682A3D3E90023A0470246E2
:101050000B46874C104619467FA3D3E90023A047CF
:1010600002460B4610461946824B984702467D4B76
:101070001A60814B1B8A1A4640F6E44303FB02F3D5
:10108000002B01DA03F6FF731B131A467B4B104645
:10109000984703463B627A4B386A984703469BB2AF
:1010A0001BB21846774B9847774B93F82E30002B9E
:1010B0000ED0182075490522754B9847724B9B8DB1
:1010C0001AB26E4B104698470246724B1A6017E0F0
:1010D000704B1A68704B1046704998470346194682
:1010E0006F4B1A686F4B08461146984703461A46DD
:1010F0006D4B10466D49984703461A46654B1A607A
:101100005D4B5B8A1A4640F6E44303FB02F3002B77
:1011100001DA03F6FF731B131A46584B1046984723
:1011200003463B62564B386A984703469BB21BB254
:1011300018465F4B9847544B93F83230002B0ED033
:10114000182052490522524B98474F4B1B8E1AB21A
:101150004A4B104698470246564B1A6017E0554BCB
:101160001A684D4B10464D49984703461946524B55
:101170001A684C4B08461146984703461A464A4B94
:1011800010464A49984703461A464A4B1A603E4B56
:1011900093F84A30002B0FD01820484907223C4BC7
:1011A0009847394BB3F848301AB2344B1046984739
:1011B0000246434B1A6011E0BB1D12201946414BF9
:1011C0009847FA88264B104698470246364B1046F9
:1011D0003D49984703461A46394B1A602A4B93F803
:1011E0004E30002B0FD0182038490722284B984743
:1011F000254BB3F84C301AB2204B104698470246A4
:10120000334B1A6011E0BB1D132019462D4B984734
:10121000FA88134B104698470246234B10462A493A
:10122000984703461A462A4B1A60174B93F85230D8
:10123000002B51D0144BB3F850301AB20F4B10465C
:1012400098470246234B1A6058E000BFAFF3008076
:101250001844A4A65D4CB73F62105839B4BC7E4018
:10126000A9680A004817072031600A00D9600A00FF
:10127000755D0A009D660A0024220720B1680A00F5
:10128000E56C0A00D9400800C02507207C880A00C8
:1012900051BA0900FC20072059690A0000004442A5
:1012A0007021072049670A00C16A0A00000048420D
:1012B000714208003C1707208417072084880A0021
:1012C0004C170720F9E70800000020418C880A002D
:1012D0005017072054170720BB1D14201946844BB4
:1012E0009847FA88834B104698470246824B10462F
:1012F0008249984703461A46814B1A60814B9B7F6F
:10130000002B0ED0182080490522804B98477D4B3A
:101310009B8B1AB27E4B1046984702467D4B1A6053
:10132000C7E0BB1D07201946714B98474FF00003DB
:10133000FB614FF00003BB61FB88774AA2FB0323EC
:10134000DB089BB2FB80FB88322B40F2AF80FB882E
:10135000724AA2FB03235B099BB21A466C4B1046F0
:10136000984703467B616E4B7869984702460B4667
:101370006C4C1046194652A3D3E90023A0470246FD
:101380000B4690469946664B7869984702460B464D
:10139000644C40464946A04702460B469046994653
:1013A0005F4B7869984702460B465E4C10461946DB
:1013B00045A3D3E90023A04702460B465A4C4046BA
:1013C0004946A04702460B46574C1046194640A3D3
:1013D000D3E90023A04702460B46534C104619465A
:1013E0003DA3D3E90023A04702460B461046194609
:1013F0004E4B984703463B614D4B38694D499847E2
:101400000346FB60464BF8689847804689463C4B4C
:101410001A68394B10463949984703461A46404BDB
:101420001046984702460B46434C104619464FF06B
:101430000002424BA04702460B463A4C1046194662
:1014400027A3D3E90023A04702460B46364C10469B
:1014500019464FF000023A4BA04702460B46394C62
:1014600040464946A04702460B46104619462F4BB8
:1014700098470346BB602A4BB868984702460B461C
:10148000284C1046194618A3D3E90023A04702466A
:101490000B4610461946254B98470346BB60164B32
:1014A000B8681649984703463B6102E04FF00003D5
:1014B0003B6118462C37BD46BDE89083AFF30080F2
:1014C0002D431CEBE2361A3FFCA9F1D24D62A03F3E
:1014D0001F85EB51B81EED3F9A9999999999D93F7B
:1014E0001B2FDD240681953F3333333333331540CF
:1014F000F9E70800A9680A00C16A0A000000204153
:1015000054170720C025072094880A0051BA090003
:10151000B1680A0058170720CDCCCCCC1F85EB5101
:1015200031600A00D9600A00755D0A009D660A00F4
:1015300059690A000000C842715D0A000000394084
:101540000000F03F2D630A0080B582B000AF944BDD
:1015500098470346FB71FB79002B01D0914B9847CC
:10156000914B93F8DE31002B33D0904BB3F85230CF
:10157000002B2AD08C4B012283F8D2218C4B1B7874
:101580008B4A0133DB0013441D229A80864B93F86B
:10159000DD310133DAB2844B83F8DD21854B012242
:1015A0001A70854B1D221A70814B1B781A46804B8E
:1015B00013442E229A70814B98470346FB71FB79A6
:1015C000002B06D0774B984703E0774B042283F833
:1015D000D221754B93F89E32002B48D0724B93F872
:1015E0009132012B04D1714B93F84530002B09D176
:1015F0006D4B93F89132002B35D16C4B93F84530FD
:10160000002B30D1684B93F89232012B2AD0664BD5
:10161000012283F89222664B1B78654A0133DB0076
:10162000134429229A80604B93F89D320133DAB239
:101630005D4B83F89D225F4B01221A705E4B29227D
:101640001A705B4B1B781A46594B13442E229A7022
:101650005A4B98470346FB71FB79002B02D0514B44
:10166000984704E003E0504B042283F892224E4B4B
:1016700093F8AE32002B48D04B4B93F8A132012B9C
:1016800004D14A4B93F84530002B09D1464B93F8CF
:10169000A132002B35D1454B93F84530002B30D18A
:1016A000414B93F8A232012B2AD03F4B012283F801
:1016B000A2223F4B1B783E4A0133DB001344292210
:1016C0009A80394B93F8AD320133DAB2364B83F856
:1016D000AD22384B01221A70374B2A221A70344B34
:1016E0001B781A46324B13442E229A70334B98477C
:1016F0000346FB71FB79002B02D02A4B984704E08C
:1017000003E0294B042283F89222274B93F8BE3240
:10171000002B59D0244B93F8B132012B04D1234B29
:1017200093F84630002B09D11F4B93F8B132002BB0
:1017300046D11E4B93F84630002B41D11A4B93F8FB
:10174000B232012B2AD0184B012283F8B222184B57
:101750001B78174A0133DB0013442B229A80124B6B
:1017600093F8BD320133DAB20F4B83F8BD22114B2F
:1017700001221A70104B2B221A700D4B1B781A463F
:101780000B4B13442E229A700C4B98470346FB7167
:10179000FB79002B02D0034B984715E014E000BF03
:1017A000490D0800C18F08000C1D072024220720C6
:1017B000C02207203917072000210720912D08009B
:1017C0009A4B042283F8B222984B93F8CE32002B26
:1017D00048D0964B93F8C132012B04D1944B93F827
:1017E0004630002B09D1914B93F8C132002B35D1F3
:1017F0008F4B93F84630002B30D18C4B93F8C2328C
:10180000012B2AD0894B012283F8C222894B1B78F5
:10181000884A0133DB0013442C229A80834B93F8CF
:10182000CD320133DAB2814B83F8CD22824B0122D3
:101830001A70824B2C221A707E4B1B781A467D4BF5
:1018400013442E229A707E4B98470346FB71FB7916
:10185000002B02D07B4B984704E003E0734B04223B
:1018600083F8C222714B93F80E32002B32D0704BAA
:101870001B8B002B2AD06D4B012283F802226D4B6B
:101880001B786C4A0133DB00134420229A80674B9B
:1018900093F80D320133DAB2644B83F80D22664BB4
:1018A00001221A70654B20221A70624B1B781A466F
:1018B000604B13442E229A70614B98470346FB718C
:1018C000FB79002B06D05F4B984703E0574B04226F
:1018D00083F80222554B93F81E32002B32D0544B22
:1018E0005B8B002B2AD0514B012283F81222514BE3
:1018F0001B78504A0133DB00134421229A804B4B62
:1019000093F81D320133DAB2484B83F81D224A4B5B
:1019100001221A70494B21221A70464B1B781A4635
:10192000444B13442E229A70454B98470346FB7153
:10193000FB79002B06D0434B984703E03B4B042236
:1019400083F81222394B93F82E32002B32D0384BC9
:10195000DB8F002B2AD0354B012283F82222354B16
:101960001B78344A0133DB00134422229A802F4B28
:1019700093F82D320133DAB22C4B83F82D222E4B03
:1019800001221A702D4B22221A702A4B1B781A46FC
:10199000284B13442E229A70294B98470346FB711B
:1019A000FB79002B06D0274B984703E01F4B0422FE
:1019B00083F822221D4B93F84E32002B53D0224B3A
:1019C0009968224B1A68224B0846114698470346ED
:1019D000002B3FD0154B012283F84222154B1B7878
:1019E000144A0133DB00134424229A800F4B93F8EE
:1019F0004D320133DAB20D4B83F84D220E4B0122EA
:101A00001A700E4B24221A700A4B1B781A46094B87
:101A100013442E229A700A4B98470346FB71FB79B8
:101A2000002B20D0074B98471DE000BF0C1D07205E
:101A300024220720C0220720391707200021072071
:101A4000912D0800C18F080004210720FC200720E9
:101A5000956C0A00934B93F84232012B03D1914BC2
:101A6000042283F842228F4B93F83E32002B43D05E
:101A700018208D490B228D4B98478D4BD9688D4B83
:101A80001A688D4B0846114698470346002B2AD00A
:101A9000844B012283F83222884B1B78874A01331A
:101AA000DB00134423229A807E4B93F83D320133AE
:101AB000DAB27C4B83F83D22814B01221A70814BB4
:101AC00023221A707D4B1B781A467C4B13442E221E
:101AD0009A707D4B98470346FB71FB79002B0BD026
:101AE0007A4B984708E06F4B93F83232012B03D1C1
:101AF0006C4B042283F832226A4B93F86E32002B2F
:101B000048D0182072490722684B9847FB79002B70
:101B100001D06E4B9847664B19696E4B1A686E4B35
:101B20000846114698470346002B2AD05D4B0122F8
:101B300083F86222614B1B78604A0133DB00134457
:101B400026229A80574B93F86D320133DAB2554B07
:101B500083F86D225A4B01221A705A4B26221A70B2
:101B6000564B1B781A46554B13442E229A70564BEF
:101B700098470346FB71FB79002B0BD0534B9847DA
:101B800008E0484B93F86232012B03D1454B042205
:101B900083F86222434B93F85E32002B3ED0444BD5
:101BA00059694C4B1A68444B0846114698470346FE
:101BB000002B2AD03B4B012283F852223F4B1B784B
:101BC0003E4A0133DB00134425229A80354B93F8BB
:101BD0005D320133DAB2334B83F85D22384B012298
:101BE0001A70384B26221A70344B1B781A46334B26
:101BF00013442E229A70344B98470346FB71FB79AD
:101C0000002B0BD0314B984708E0264B93F852320B
:101C1000012B03D1234B042283F85222214B9B7FBB
:101C2000002B60D01F4B5B7C012B03D12B4B1B780F
:101C3000002B0AD11B4B5B7C002B51D1274B1B780F
:101C400083F00103DBB2002B4AD0164B9B7C012BA7
:101C500027D0144B01229A74184B1B78174A013372
:101C6000DB00134401229A800E4B5B7F0133DAB212
:101C70000C4B5A77124B01221A70124B01221A7028
:101C80000E4B1B781A460D4B13442E229A700E4BA6
:101C900098470346FB71FB79002B02D00B4B98470A
:101CA00021E020E00C1D0720A0880A0051BA09009D
:101CB00004210720FC200720D16C0A00C022072045
:101CC0003917072000210720912D0800C18F080037
:101CD000AC880A003C170720956C0A0024220720D4
:101CE000974B04229A74964B93F83E30002B46D0C3
:101CF000934B93F83130012B04D1924B93F8403041
:101D0000002B0CD18E4B93F83130002B33D18D4BFF
:101D100093F8403083F00103DBB2002B2BD0884BCB
:101D2000012283F83220884B1B78874A0133DB007D
:101D3000134403229A80824B93F83D300133DAB288
:101D40007F4B83F83D20814B01221A70804B032288
:101D50001A707D4B1B781A467B4B13442E229A70C7
:101D60007C4B98470346FB71FB79002B02D07A4BE2
:101D7000984704E003E0724B042283F83220704B52
:101D800093F85E30002B46D06D4B93F85130012B09
:101D900004D16C4B93F84030002B0CD1684B93F876
:101DA0005130002B33D1674B93F8403083F001035F
:101DB000DBB2002B2BD0624B012283F85220624B06
:101DC0001B78614A0133DB00134403229A805C4B89
:101DD00093F85D300133DAB2594B83F85D205B4BE9
:101DE00001221A705A4B05221A70574B1B781A465B
:101DF000554B13442E229A70564B98470346FB715D
:101E0000FB79002B02D0544B984704E003E04C4B85
:101E1000042283F852204A4B93F84E30002B46D0D0
:101E2000474B93F84130012B04D1464B93F8413096
:101E3000002B0CD1424B93F84130002B33D1414B56
:101E400093F8413083F00103DBB2002B2BD03C4BE5
:101E5000012283F842203C4B1B783B4A0133DB00D4
:101E6000134404229A80364B93F84D300133DAB292
:101E7000334B83F84D20354B01221A70344B04222A
:101E80001A70314B1B781A462F4B13442E229A702E
:101E9000304B98470346FB71FB79002B02D02E4B49
:101EA000984704E003E0264B042283F84220244BA9
:101EB00093F86E30002B55D0214B93F86130012BF5
:101EC00004D1204B93F84130002B0CD11C4B93F8DC
:101ED0006130002B42D11B4B93F8413083F001035A
:101EE000DBB2002B3AD0164B012283F86220164B4E
:101EF0001B78154A0133DB00134406229A80104BED
:101F000093F86D300133DAB20D4B83F86D200F4B2F
:101F100001221A700E4B06221A700B4B1B781A46C0
:101F2000094B13442E229A700A4B98470346FB71C3
:101F3000FB79002B02D0084B984713E012E000BF5A
:101F40000C1D072024220720C02207203917072054
:101F500000210720912D0800C18F0800A94B042201
:101F600083F86220A84B9B8F002B02D0A74B012245
:101F70001A70A54B9B8F002B02D1A44B02221A7022
:101F8000A04B93F8DE33002B46D09F4B93F83A30AA
:101F9000002B04D09B4B93F8D133012B0CD09A4BE0
:101FA00093F83A3083F00103DBB2002B34D0954B29
:101FB00093F8D133002B2FD1924B93F8D233012BCE
:101FC00020D0904B022283F8E2238E4B012283F82B
:101FD000D2238F4B1B788E4A0133DB0013443D2202
:101FE0009A808C4B01221A708B4B3D221A70884BC1
:101FF0001B781A46864B13442E229A70874B012277
:102000001A7006E07F4B002283F8DD23814B00220B
:102010001A70834B00221A707A4B93F8EE33002B20
:1020200043D0794B93F83A30002B04D0754B93F89A
:10203000E133012B0CD0744B93F83A3083F0010359
:10204000DBB2002B31D06F4B93F8E133002B2CD156
:102050006C4B93F8E233012B1DD06A4B93F8EE33AF
:10206000002B1FD0674B022283F8D223654B01223D
:1020700083F8E223674B01221A70674B3E221A70E5
:10208000634B1B781A46624B13442E229A70634BA3
:1020900002221A7006E05B4B002283F8ED235D4BB1
:1020A00000221A705E4B01221A70564B93F85E3173
:1020B000002B45D0534B93F85231012B37D0514B65
:1020C000D3F85411574B1A68574B08461146984796
:1020D0000346002B00D133E04A4B012283F8522102
:1020E0004B4B1B784A4A0133DB00134415229A807C
:1020F000444B93F85D310133DAB2424B83F85D21F2
:10210000444B01221A70444B15221A70404B1B7825
:102110001A463F4B13442E229A70444B984703466D
:10212000FB71FB79002B0BD0414B984708E0354BF6
:1021300093F85231012B03D1324B042283F8522100
:10214000304B93F86E31002B45D02E4B93F8623113
:10215000012B37D02B4BD3F86811324B1A68354B13
:102160000846114698470346002B00D133E0254B23
:10217000012283F86221264B1B78254A0133DB00BC
:10218000134416229A801F4B93F86D310133DAB253
:102190001C4B83F86D211F4B01221A701E4B162217
:1021A0001A701B4B1B781A46194B13442E229A7037
:1021B0001E4B98470346FB71FB79002B0BD01C4B41
:1021C000984708E00F4B93F86231012B03D10D4B78
:1021D000042283F862210B4B93F87E31002B61D0EF
:1021E000084B93F87231012B53D0064BD3F874117E
:1021F000114B1A680C4B0846114698470346002BB2
:102200001CD14FE00C1D072024220720C41A0720F0
:10221000C02207203917072000210720EC1A0720C9
:102220000801072040170720956C0A00912D08002F
:10223000C18F0800D16C0A00441707208F4B012280
:1022400083F872218E4B1B788D4A0133DB001344D7
:1022500017229A80894B93F87D310133DAB2874B8C
:1022600083F87D21874B01221A70874B17221A7041
:10227000834B1B781A46824B13442E229A70834B51
:1022800098470346FB71FB79002B0BD0804B984796
:1022900008E07A4B93F87231012B03D1774B04227B
:1022A00083F87221754B93F88E31002B45D0734B18
:1022B00093F88231012B37D0704BD3F88811754BCE
:1022C0001A68754B0846114698470346002B00D103
:1022D00033E06A4B012283F88221694B1B78684AFC
:1022E0000133DB00134418229A80644B93F88D313C
:1022F0000133DAB2614B83F88D21624B01221A70EF
:10230000614B18221A705E4B1B781A465C4B1344C3
:102310002E229A705D4B98470346FB71FB79002B88
:102320000BD05B4B984708E0544B93F88231012B5C
:1023300003D1524B042283F88221504B93F87E3212
:10234000002B45D04D4BD3F87412544B1A68544BA4
:102350000846114698470346002B30D0474B93F868
:102360007232012B2BD0454B012283F87222444B51
:102370001B78434A0133DB00134427229A803F4BEA
:1023800093F87D320133DAB23C4B83F87D223D4B2A
:1023900001221A703C4B27221A70394B1B781A46BF
:1023A000374B13442E229A70384B98470346FB71E3
:1023B000FB79002B02D0364B984709E008E02F4B01
:1023C00093F87232012B03D12C4B042283F8722232
:1023D0002A4B93F88E32002B73D0324BD96A2F4B95
:1023E0001A682D4B0846114698470346002B5FD0CC
:1023F000224B93F88232012B5AD0284B1A68284B73
:1024000010464FF0000198470346002B09D0234B9C
:102410001A68254B10462549984703461A461F4B14
:102420001A60164B012283F88222154B1B78144A3E
:102430000133DB00134428229A80104B93F88D322D
:102440000133DAB20D4B83F88D220E4B01221A7044
:102450000D4B28221A700A4B1B781A46084B13445E
:102460002E229A70094B98470346FB71FB79002B8B
:1024700002D0074B984724E023E000BF0C1D072043
:10248000C02207203917072000210720912D0800BE
:10249000C18F080044170720D16C0A004817072095
:1024A000956C0A000421072049670A0000007A445D
:1024B0009A4B93F88232012B03D1984B042283F874
:1024C0008222964B93F8FE30002B46D0934BD3F8E4
:1024D000F410934B1A68934B0846114698470346ED
:1024E000002B2AD08D4B012283F8F2208E4B1B78D3
:1024F0008D4A0133DB0013440F229A80874B93F8F7
:10250000FD300133DAB2854B83F8FD20874B012281
:102510001A70874B0F221A70834B1B781A46824B16
:1025200013442E229A70834B98470346FB71FB7924
:10253000002B12D0804B98470FE0784B93F8F23085
:10254000012B0AD1754B042283F8F220734B002231
:1025500083F8FD20754B00221A70704B93F80E31F2
:10256000002B4BD06D4BD3F808116D4B1A68734B91
:102570000846114698470346002B2FD0674B93F827
:102580000231012B3AD0654B012283F80221664BC0
:102590001B78654A0133DB00134410229A805F4B9D
:1025A00093F80D310133DAB25C4B83F80D215F4BA8
:1025B00001221A705E4B10221A705B4B1B781A4670
:1025C000594B13442E229A705A4B98470346FB717D
:1025D000FB79002B12D0584B98470FE04F4B93F8E4
:1025E0000231012B0AD14D4B042283F802214B4BBF
:1025F000002283F80D214D4B00221A70474B93F8AF
:102600003E31002B4AD04E4B996C4E4B1A68454BCD
:102610000846114698470346002B2FD03F4B93F8AE
:102620003231012B3AD03D4B012283F832213E4B0F
:102630001B783D4A0133DB00134413229A80374B49
:1026400093F83D310133DAB2344B83F83D21374BF7
:1026500001221A70364B13221A70334B1B781A461C
:10266000314B13442E229A70324B98470346FB712C
:10267000FB79002B12D0304B98470FE0274B93F893
:102680003231012B0AD1254B042283F83221234B0E
:10269000002283F83D21254B00221A701F4B93F82E
:1026A0004E31002B60D0264BD96C264B1A68234B39
:1026B0000846114698470346002B45D0174B93F820
:1026C0004231012B50D0154B012283F84221164B89
:1026D0001B78154A0133DB00134414229A800F4BF8
:1026E00093F84D310133DAB20C4B83F84D210F4B87
:1026F00001221A700E4B14221A700B4B1B781A46CB
:10270000094B13442E229A700A4B98470346FB71DB
:10271000FB79002B28D0084B984725E00C1D07209B
:102720004C170720956C0A00C02207203917072094
:1027300000210720912D0800C18F0800D16C0A00EC
:102740000421072054170720A04B93F84231012B96
:102750000AD19E4B042283F842219C4B002283F82D
:102760004D219B4B00221A70984B93F81E31002B81
:102770004BD0964BD3F81411964B1A68964B0846DB
:10278000114698470346002B2FD0904B93F81231F7
:10279000012B3AD08D4B012283F812218F4B1B78ED
:1027A0008E4A0133DB00134411229A80874B93F841
:1027B0001D310133DAB2854B83F81D21844B012290
:1027C0001A70874B11221A70844B1B781A46834B60
:1027D00013442E229A70834B98470346FB71FB7972
:1027E000002B12D0804B98470FE0784B93F81231B2
:1027F000012B0AD1754B042283F81221734B00225E
:1028000083F81D21724B00221A70704B93F82E3101
:10281000002B4BD06D4BD3F828116E4B1A68734BBD
:102820000846114698470346002B2FD0674B93F874
:102830002231012B3AD0654B012283F82221674BCC
:102840001B78664A0133DB00134412229A805F4BE7
:1028500093F82D310133DAB25C4B83F82D215C4BB8
:1028600001221A705E4B12221A705C4B1B781A46BA
:102870005A4B13442E229A705A4B98470346FB71C9
:10288000FB79002B12D0584B98470FE04F4B93F831
:102890002231012B0AD14D4B042283F822214B4BCC
:1028A000002283F82D214A4B00221A70474B93F8DF
:1028B0008E30002B4AD04E4B5B881AB24D4B1046DF
:1028C000984701464C4B1A68434B084611469847B7
:1028D0000346002B2AD03D4B012283F882203F4B38
:1028E0001B783E4A0133DB00134408229A80374BA1
:1028F00093F88D300133DAB2344B83F88D20344BAA
:1029000001221A70364B08221A70344B1B781A4673
:10291000324B13442E229A70324B98470346FB7178
:10292000FB79002B12D0304B98470FE0274B93F8E0
:102930008230012B0AD1254B042283F88220234BBD
:10294000002283F88D20224B00221A701F4B93F82F
:102950007E30002B62D0264B1B881AB2254B1046C6
:1029600098470146244B1A68204B08461146984761
:102970000346002B42D0154B012283F87220174BDF
:102980001B78164A0133DB00134407229A800F4B51
:1029900093F87D300133DAB20C4B83F87D200C4B79
:1029A00001221A700E4B07221A700C4B1B781A4624
:1029B0000A4B13442E229A700A4B98470346FB7128
:1029C000FB79002B2AD0084B984727E00C1D0720E5
:1029D0003917072050170720956C0A00C0220720DE
:1029E00000210720912D0800C18F0800D16C0A003A
:1029F00004210720B1680A00581707207F4B93F87D
:102A00007230012B0AD17D4B042283F872207B4B5C
:102A1000002283F87D207A4B00221A70774B93F8BE
:102A20009E30002B0AD1754B93F8AE30002B05D1A8
:102A3000724B93F8BE30002B00F0F180714B0022F6
:102A40001A707048704B98470346FB71FB79002B56
:102A500001D06E4B98476B4B1B780A2B48D00B2B41
:102A600000F08980092B40F0DA80664B1B78634ABE
:102A70001B01134401229A70604B042283F8A220A8
:102A80005E4B042283F8B220614B1B7818465D4BE5
:102A90001B7899B25E4A431CDB0013440A469A80B5
:102AA000584B1B7855491A010A44083252790132B1
:102AB000D1B2524A1B01134408330A465A71504B93
:102AC00001221A704F4B1A78524B1A70504B1B78D8
:102AD0001A464F4B13442E229A704F4B9847034689
:102AE000FB71FB79002B02D0484B984797E096E0AA
:102AF000444B1B78414A1B01134401229A703F4BFF
:102B0000042283F892203D4B042283F8B220404BEC
:102B10001B7818463B4B1B7899B23D4A431CDB009F
:102B200013440A469A80374B1B7834491A010A44E9
:102B3000083252790132D1B2304A1B0113440833B2
:102B40000A465A712E4B01221A702E4B1A78314BBD
:102B50001A702F4B1B781A462D4B13442E229A7055
:102B60002D4B98470346FB71FB79002B02D0274B76
:102B7000984754E053E0234B1B78204A1B01134431
:102B800001229A701D4B042283F892201B4B0422D1
:102B900083F8A2201E4B1B7818461A4B1B7899B25B
:102BA0001B4A431CDB0013440A469A80154B1B78D2
:102BB00012491A010A44083252790132D1B20F4A3D
:102BC0001B01134408330A465A710D4B01221A7037
:102BD0000C4B1A780F4B1A700D4B1B781A460C4B86
:102BE00013442E229A700C4B98470346FB71FB79D5
:102BF000002B13D0054B984710E000BF0C1D072099
:102C0000391707203817072005320800C18F080040
:102C1000C022072000210720912D080000BF504B43
:102C20001B78002B00F097804E4B93F8CE30002B92
:102C30000AD14C4B93F8DE30002B05D1494B93F869
:102C4000EE30002B00F08780474B9B8F1A46474B96
:102C50001B689A420CD0464B00221A60454B1B68F9
:102C60000133444A1360444B1B680133424A1360EA
:102C70003F4B1B68282B32D93A4B93F8C230012BBB
:102C80002DD0384B012283F8C2203C4B1B783B4AA5
:102C90000133DB0013440C229A80324B93F8CD3081
:102CA0000133DAB22F4B83F8CD202E4B042283F868
:102CB000C220334B01221A70324B0C221A702F4B58
:102CC0001B781A462D4B13442D229A702E4B984791
:102CD0000346FB71FB79002B01D02C4B9847254B09
:102CE0001B68022B32D91F4B93F8E230012B2DD0F9
:102CF0001C4B012283F8E220204B1B781F4A013332
:102D0000DB0013440E229A80164B93F8ED3001330A
:102D1000DAB2144B83F8ED20124B042283F8E22040
:102D2000174B01221A70174B0E221A70134B1B7887
:102D30001A46124B13442D229A70134B98470346A0
:102D4000FB71FB79002B01D0104B9847064B9B8FF2
:102D50001A46064B1A60002318460837BD4680BD48
:102D6000691A07200C1D0720242207202817072096
:102D70002C1707203017072034170720C022072000
:102D80003917072000210720912D0800C18F080066
:102D900080B400AF0B4B1B78002B0CD00A4B1B7878
:102DA000092B08D8084B01225A70074B1B780133B6
:102DB000DAB2054B1A7000231846BD465DF8047B55
:102DC000704700BF39170720C022072080B400AF2A
:102DD0000B4B1B78002B0CD00A4B1B78092B08D807
:102DE000084B01225A70074B1B780133DAB2054BAE
:102DF0001A7000231846BD465DF8047B704700BF7B
:102E000039170720E424072080B485B000AFBA60EA
:102E10007B600346FB730B46BB73FB7B0F4A1B01B6
:102E20001344BA7B5A70FB7B0C4A1B0113440833D2
:102E30007A681A60FB7B094A1B011344BA685A601E
:102E4000FB7B064A1B01134408333A7E1A710023A8
:102E500018461437BD465DF8047B70470C1D0720EB
:102E600080B584B000AF03460A46FB711346BB71C0
:102E70000023FB73FB79002B57D0FB793E2B54D8F2
:102E8000FB793D2B05D0FB793E2B02D0FB793C2B07
:102E900013D1FB792B4A1B011344083301229A7189
:102EA000FB79284A1B01134402229A70FB79254AB8
:102EB0001B011344083300225A71234B1B78002B4B
:102EC00032D0FB791F4A1B011344FA791A70BB797F
:102ED000002B14D0FB791B4A1B0113440833012239
:102EE0009A71FB79174A1B01134402229A70FB79ED
:102EF000144A1B011344083300225A7114E0FB7971
:102F0000104A1B011344083300229A71FB790D4AC1
:102F10001B01134404229A70FB790A4A1B011344D3
:102F2000083300225A7102E001E00423FB73FB7BAB
:102F3000002B01D0054B9847FB7B18461037BD4648
:102F400080BD00BF0C1D0720380A0720C18F080074
:102F500080B485B000AF0346FB710023FB73FB799F
:102F6000002B0BD0FB793E2B08D8FB79084A1B01BC
:102F7000134402229A700023FB7301E00423FB73C5
:102F8000FB7B18461437BD465DF8047B704700BFD5
:102F90000C1D072080B500AF1F4B93F8CE33002BDC
:102FA00038D01E4B9B8B012B27D11D4B1B88002B30
:102FB00023D1194B012283F8C2231A4B1B78194ADB
:102FC0000133DB0013443C229A80134B93F8CD333A
:102FD0000133DAB2104B83F8CD23134B01221A7060
:102FE000124B3C221A700F4B1B781A460D4B1344A0
:102FF0002F229A700E4B984707E0074B042283F864
:10300000C223054B002283F8CD23044B9B8B9AB23D
:10301000034B1A80184680BD0C1D07202422072070
:103020003A170720E424072039170720002107203A
:10303000CD2D080080B584B000AF03463960FB7128
:103040000023FB73FB79002B1AD0FB793E2B17D89A
:10305000FB79114A1B0113449B78012B06D0FB79A5
:103060000D4A1B0113449B78032B03D13B680122BB
:103070001A7002E03B6800221A700023FB7301E023
:103080000423FB73FB7B002B01D0044B9847FB7B95
:1030900018461037BD4680BD0C1D0720C18F0800A3
:1030A00080B584B000AF03460A46FB711346BB717E
:1030B0000023FB73FB79002B60D0FB793E2B5DD89E
:1030C000FB79344A1B01134408339B79002B52D0FF
:1030D000BB79002B38D0FB792E4A1B011344012207
:1030E0009A702D4B1B78FA7991B22B4A0133DB0091
:1030F00013440A469A80FB7926491A010A44083289
:1031000052790132D1B2234A1B01134408330A46D3
:103110005A71224B01221A70214AFB791370FB79F4
:103120003C2B07D11C4B1B781A461B4B13442D22FA
:103130009A7006E0184B1B781A46174B13442E2240
:103140009A70184B984716E0FB79124A1B011344FA
:103150009B78012B0FD1FB790E4A1B0113440422EB
:103160009A70FB790B4A1B011344083300225A71F1
:103170000A4B00221A700023FB7301E00423FB7347
:10318000FB7B002B01D0084B9847002318461037D3
:10319000BD4680BD0C1D0720C0220720391707201F
:1031A00000210720912D0800C18F080080B483B052
:1031B00000AF0023FB710F4B1B8801339AB20D4BFC
:1031C0001A800D4B00221A600C4B1B6801330B4A0E
:1031D0001360084B1B88142B05D9094B00221A6079
:1031E000044B00221A80002318460C37BD465DF8B8
:1031F000047B70475C170720301707202C17072027
:103200003417072080B483B000AF78603B4B1B8835
:103210001A461346DB001344394A528E1344394A86
:1032200082FB03129210DB17D31A9AB2334B1A8027
:10323000354B1B78032B59D801A252F823F000BF5D
:10324000513208008932080051320800B7320800B4
:103250002A4B1B88322B0AD9284B1B88B3F5FA6FEF
:1032600005D27B680A221A70274B01221A70234B61
:103270001B88B3F5FA6F06D97B680B221A70224BB4
:1032800003221A7032E031E01C4B1B88B3F5FA6F51
:1032900005D97B680B221A701B4B03221A70174B3F
:1032A0001B88312B06D87B6809221A70164B022224
:1032B0001A701BE01AE0114B1B88322B0AD90F4BF6
:1032C0001B88B3F5FA6F05D27B680A221A700E4B81
:1032D00001221A70094B1B88312B06D87B68092202
:1032E0001A70094B02221A70FFE700BF002318462C
:1032F0000C37BD465DF8047B704700BF5E170720A2
:1033000024220720676666666017072080B584B0B0
:1033100000AF0346FB710023FB73FB79043B0C2BCE
:1033200000F2A88001A252F823F000BF6133080028
:10333000FD33080075340800753408007534080042
:103340007534080075340800CB3308007534080064
:1033500019340800753408005D340800273408006B
:103360000720964B98470346FB73022040F24C41DE
:10337000934B984701204FF46171914B98471A2065
:103380000021904B9847904B1B78012B15D11520AD
:103390008A4B98470346FB738C4B1B78012B0CD14F
:1033A0008B4B984740F6AC508A4B984701208A4B8C
:1033B0009847052089498A4B98478A4B1A788A4B47
:1033C0001A70884B02221A7054E0864B1B78002B2F
:1033D00013D10720794B98470346FB73824B1B7828
:1033E0001A46824B9B5C1846744B98470346FB7306
:1033F0007D4B1A787B4B1A703CE03BE07C4B002203
:103400001A601A2000216F4B984711206B4B984788
:10341000744B00221A702DE0764B00221A80714BFB
:1034200000221A7026E00520644B98470346FB7380
:1034300002204FF47A71624B984701204FF47A7161
:103440005F4B98476C4B61221A806B4B1B88184668
:103450006A4B9847634B0C221A700BE0664B422272
:103460001A80654B1B881846644B98475D4B0C22AD
:103470001A7000BF5B4B1B78152B00F2948501A2DC
:1034800052F823F0A73F0800A73F0800DD340800EA
:103490008B350800773808001739080033390800E1
:1034A0006939080085390800AB390800C7390800B8
:1034B000FD390800193A0800873A0800853C0800E1
:1034C000F33C08001F3F0800A73F0800633F0800C7
:1034D000A73F0800A73F0800A73F0800FB79013B72
:1034E000072B4FD801A252F823F000BF0D3508007A
:1034F0001535080085350800853508008535080034
:1035000035350800853508005D3508003C4B012243
:103510001A7038E03A4B1B78002B0AD0314B1A78DE
:10352000314B1A702F4B03221A70354B00221A7040
:1035300029E028E02F4B00221A8005201F4B9847D6
:103540000346FB73FB7B002B07D1264B1A78264BD7
:103550001A70244B10221A7015E014E0254B00223B
:103560001A800620154B98470346FB73FB7B002B04
:1035700007D11C4B1A781C4B1A701A4B12221A7066
:1035800001E000E000BF00F00FBDFB79013B072B1D
:1035900000F26F8101A252F823F000BF73380800D7
:1035A00005360800733808007338080073380800BF
:1035B00023380800733808004B380800BD9E090006
:1035C000459D0900612E0800121C07205F1A072084
:1035D000A59C0900AD9D0900D99408000000964201
:1035E0005194080061170720621707200C0107207B
:1035F00074170720661707206A17072075A10900AE
:10360000631707209F4B1B78012B47D10023BB81F9
:103610004223BB81BB8918469B4B984702204FF43D
:10362000FA719A4B984701204FF47A71974B98475B
:10363000974B1B889BB29AB2013292B291B2944AD4
:1036400011801BB2B3F5167F27DD924B00221A8042
:103650008F4B00221A8005208F4B98470346FB733F
:1036600013208E4B98470346FB7351208C4B984791
:103670000346FB73FB7B002B0FD11A200021894BE3
:103680009847894B1A78894B1A70874B0C221A700D
:10369000854B1A78854B1A70C2E0C1E07D4B1B88C0
:1036A0009BB29AB2013292B291B27A4A11801BB2A5
:1036B000B3F5967F40F3B480724B1B78012B0DD18C
:1036C000744B00221A8002204FF4FA716F4B984716
:1036D00001204FF47A716D4B98476DE0744B984719
:1036E000744B98476B4B00221A8002204FF47A717A
:1036F000664B9847012040F24C41644B98476E4B13
:1037000044221A806C4B1B8818465F4B98476B4BC2
:103710001B78012B50D102204FF416715B4B984758
:10372000012040F24C41594B9847654B9847624BFA
:1037300051221A80604B1B881846534B9847614BA7
:1037400098474FF47A60604B984701205F4B984749
:1037500005205F495F4B984702205F4B9847032045
:103760005D4B98475D4B9847022000215C4B984782
:103770005C4B984764205C4B984701204FF47A518A
:10378000574B9847C820584B984701204FF4FA519F
:10379000534B98474FF41670534B9847012041F212
:1037A00088314F4B98474FF448704F4B9847012052
:1037B00040F6C4114A4B98473F4B42221A803E4B79
:1037C0001B881846304B984702204FF47A712F4BD4
:1037D000984701204FF47A712C4B984705202E4BC7
:1037E00098470346FB7313202C4B98470346FB7303
:1037F00051202B4B98470346FB73FB7B002B0FD1CB
:103800001A200021274B9847274B1A78274B1A700C
:10381000254B0C221A70244B1A78244B1A7029E07D
:1038200028E01C4B00221A8005201B4B98470346BA
:10383000FB73FB7B002B07D11B4B1A781B4B1A70B9
:10384000194B10221A7015E014E0124B00221A8056
:103850000620114B98470346FB73FB7B002B07D1D7
:10386000114B1A78114B1A700F4B12221A7001E08B
:1038700000E000BF98E3FB79012B37D0022B39D051
:1038800048E000BF121C072075A10900459D0900F2
:103890006817072066170720BD9E0900ED9C0900E8
:1038A00051BC0800612E080061170720621707202D
:1038B00051A1090049A009006A170720C11C07206F
:1038C000419E0900A59C0900AD9D0900D9940800FE
:1038D0000000A04251940800CD9C090075A0090089
:1038E000F55D0900A55D0900953109009B4B01229A
:1038F0001A700FE0994B1B78002B0AD0984B1A785E
:10390000984B1A70964B05221A70944B00221A702D
:10391000FFE700BF48E3FB79022B04D0032B04D060
:10392000012B04D004E000BF3EE300BF3CE300BF36
:103930003AE3FB79012B02D0022B04D013E0874B32
:1039400001221A700FE0854B1B78002B0AD0844BA4
:103950001A78844B1A70824B07221A707F4B002210
:103960001A70FFE700BF1FE3FB79022B04D0032B83
:1039700004D0012B04D004E000BF15E300BF13E323
:1039800000BF11E3FB79012B02D0022B0BD00BE01F
:10399000734B1A78734B1A70714B09221A706F4B64
:1039A00000221A7000E000BFFEE2FB79022B04D077
:1039B000032B04D0012B04D004E000BFF4E200BFCD
:1039C000F2E200BFF0E2FB79012B02D0022B04D01F
:1039D00013E0624B01221A700FE0604B1B78002B42
:1039E0000AD05F4B1A785F4B1A705D4B0B221A702E
:1039F0005A4B00221A70FFE700BFD5E2FB79022B79
:103A000004D0032B04D0012B04D004E000BFCBE290
:103A100000BFC9E200BFC7E2FB79002B01D0022B37
:103A200030E0514B1B889BB29BB201339BB29AB2E0
:103A30004D4B1A804D4B1B881BB2132B17DC4B4B85
:103A40001B881BB2022B08D11420494B9847132026
:103A5000474B98470420464B9847444B1B889BB2E2
:103A60009BB201339BB29AB2404B1A8009E03F4BA4
:103A700000221A803A4B1A783A4B1A70384B0D22B2
:103A80001A7000BF90E2FB79032B00F2F98001A2CB
:103A900052F823F0A53A0800813C0800B93A080022
:103AA000CF3A0800304B1B889BB29BB201339BB2CC
:103AB0009AB22D4B1A80E4E02B4B1B881BB2962B3D
:103AC00004DD1A2001212B4B9847DAE0D9E02A4B7C
:103AD00001221A70294B00221A60234B1B889AB2CC
:103AE000264B1A80254B16229A701F4B1B889AB2C0
:103AF000234B1A80234B1B78012B40F09580224BDF
:103B00001B68B3F5C87F00F08E80B3F5C87F05D879
:103B1000C82B7ED0B3F5967F5DD085E0B3F5FA7FF4
:103B20003BD0B3F5487F7FD10F4B1B881BB2372B9F
:103B300004DC0D4B1B881BB22C2B29DC134B1B68A0
:103B40000133124A1360114B1B68032B04DD1A204A
:103B50000121084B98471FE01EE000BF63170720B4
:103B600061170720621707207817072064170720BE
:103B7000ED9C0900A13008005C1A07207C17072083
:103B80008017072053190720541907206C170720A6
:103B9000904B00221A6047E046E08F4B1B881BB217
:103BA0004D2B04DC8C4B1B881BB2422B0EDC894B4B
:103BB0001B680133874A1360864B1B68032B04DDA7
:103BC0001A200121854B984704E003E0814B002235
:103BD0001A6029E028E0804B1B881BB27D2B04DC97
:103BE0007D4B1B881BB2722B0EDC7A4B1B6801339A
:103BF000784A1360774B1B68032B04DD1A200121E0
:103C0000764B984704E003E0724B00221A600BE009
:103C10000AE0714B1B881BB2BE2B03DD1A20012169
:103C20006E4B984700E000BF06206D4B9847034657
:103C3000FB7314206B4B984713206A4B9847042062
:103C4000684B9847372068490422684B98474920B9
:103C500067490222654B9847664B1B680133654AEA
:103C60001360FB7B002B0AD1634B1A78634B1A70ED
:103C7000614B0E221A70584B00221A8001E000E0BE
:103C800000BF91E1FB79002B01D0022B30E0524BB9
:103C90001B889BB29BB201339BB29AB24E4B1A80E7
:103CA000574B1B881BB2132B17DC554B1B881BB2C1
:103CB000022B08D11420534B98471320514B98479F
:103CC0000420504B98474E4B1B889BB29BB201334C
:103CD0009BB29AB24A4B1A8009E0494B00221A80E3
:103CE000454B1A78454B1A70434B0F221A7000BF90
:103CF0005AE1FB79032B00F2108101A252F823F064
:103D0000113D08001B3F0800253D08003B3D080011
:103D1000314B1B889BB29BB201339BB29AB22E4BA4
:103D20001A80FBE02C4B1B881BB2962B04DD1A205B
:103D300001212A4B9847F1E0F0E0334B01221A7041
:103D4000294B00221A60244B1B889AB2264B1A80FA
:103D5000254B15229A70204B1B889AB2244B1A804F
:103D60002A4B1B78012B40F0AC80294B1B68B3F524
:103D7000C87F00F0A580B3F5C87F06D8C82B00F037
:103D80008780B3F5967F65D09BE0B3F5FA7F43D08B
:103D9000B3F5487F40F095800F4B1B881BB2372B43
:103DA00004DC0D4B1B881BB22C2B0EDC194B1B6843
:103DB0000133184A1360174B1B68032B04DD1A20CC
:103DC0000121064B984704E003E0124B00221A60E1
:103DD00077E076E06C17072078170720A1300800FD
:103DE000BD9E0900CD9C09007C17072051BA09002F
:103DF0008017072074170720611707206217072014
:103E000064170720ED9C09005C1A0720531907204E
:103E10005419072070170720664B1B881BB24D2BC7
:103E200004DC644B1B881BB2422B0EDC624B1B680C
:103E30000133614A1360604B1B68032B04DD1A20B9
:103E400001215E4B984704E003E05B4B00221A60BF
:103E500037E036E0574B1B881BB27D2B04DC554BFB
:103E60001B881BB2722B0EDC534B1B680133524A6A
:103E70001360514B1B68032B04DD1A2001214F4BAB
:103E8000984704E003E04C4B00221A6019E018E068
:103E9000484B1B881BB2BE2B11DD494B98470420B1
:103EA000484B98473220484B98470420474B984747
:103EB0003220454B98471A200121404B984700E09B
:103EC00000BF0520424B98470346FB7313203D4B30
:103ED000984714203B4B984704203A4B984737208B
:103EE0003C4904223C4B984749203C4902223A4B2A
:103EF00098473B4B1B680133394A1360FB7B002B0F
:103F00000AD1384B1A78384B1A702A4B00221A8083
:103F1000344B0C221A7001E000E000BF44E0FB7952
:103F2000042B0BD0072B00D01AE00520284B984714
:103F30000346FB732B4B11221A7011E00720244B10
:103F400098470346FB73274B1A78274B1A70254B6B
:103F500002221A7013201B4B98470346FB7300BFC5
:103F600022E0FB79042B0BD0092B00D01AE00620AD
:103F7000174B98470346FB731A4B13221A7011E034
:103F80000720134B98470346FB73164B1A78164BC2
:103F90001A7013200B4B98470346FB73114B0222F8
:103FA0001A7000BF00E000BF002318461037BD465E
:103FB00080BD00BF7817072070170720A1300800C8
:103FC000399F0900CD9C090095310900ED9C09003D
:103FD000BD9E09007C17072051BA090080170720F1
:103FE00074170720611707206217072080B485B077
:103FF00000AF78600023FB6061E0354AFB6832F86F
:1040000023309BB21A467B689A420BD1304AFB6838
:104010009B0013445B889BB21A462E4B1A602D4BB3
:104020001B684FE02A4AFB6832F823309BB21A46DD
:104030007B689A4240D2FB680133254A32F823302C
:104040009BB21A467B689A4236D9FB680133204AF4
:1040500032F823309BB219461D4AFB6832F82330F0
:104060009BB2CA1AFB68013319499B000B445B8859
:104070009BB218461649FB689B000B445B889BB2B9
:10408000C31A92FBF3F37B81B7F90A301049FA683F
:1040900031F8222092B211467A68521A02FB03F2DA
:1040A0000B49FB689B000B445B889BB21344094A95
:1040B0001360084B1B6805E0FB680133FB60FB687D
:1040C000312B9ADD18461437BD465DF8047B7047E6
:1040D000240107207421072090B585B000AF034666
:1040E000FB800023FB60ADE05A4AFB689B00134451
:1040F0005B889BB2B7F906201BB29A420CD1554A95
:10410000FB6832F823309BB21AB2534B10469847E3
:104110000246524B1A6092E04E4AFB689B001344E1
:104120005B889BB2B7F906201BB29A4260DDFB6840
:104130000133484A9B0013445B889BB2B7F90620C1
:104140001BB29A4254DAFB680133424A32F82330F8
:104150009BB21AB23F49FB6831F823309BB21BB2C5
:10416000D31A642202FB03F2FB68013339499B0036
:104170000B445B889BB219B23648FB689B00034432
:104180005B889BB21BB2CB1A92FBF3F2324B104608
:1041900098470346BB60B7F906202E49FB689B0091
:1041A0000B445B889BB21BB2D21A2B4B104698472C
:1041B00002462B4B1046B968984703461A46294BCE
:1041C00010462949984703461C46224AFB6832F8A4
:1041D00023309BB21AB2204B104698470246234B1D
:1041E00020461146984703461A461C4B1A6026E0A3
:1041F000184B5B889BB2B7F906201BB29A420ADAC9
:10420000144B1B889BB21AB2134B104698470246B8
:10421000124B1A6013E00F4BB3F866309BB2B7F93C
:1042200006201BB29A420ADD0A4BB3F864309BB2F7
:104230001AB2094B104698470246084B1A60FB68B1
:104240000133FB60FB68192B7FF74EAF1437BD4677
:1042500090BD00BFEC010720B1680A007021072063
:1042600059690A00C16A0A000000C84249670A0089
:1042700090B585B000AF0346FB800023FB60ADE046
:104280005A4AFB689B0013445B889BB2B7F906202F
:104290001BB29A420CD1554AFB6832F823309BB2CC
:1042A0001AB2534B104698470246524B1A6099E097
:1042B0004E4AFB689B0013445B889BB2B7F906200B
:1042C0001BB29A4260DDFB680133484A9B001344ED
:1042D0005B889BB2B7F906201BB29A4254DAFB689E
:1042E0000133424A32F823309BB21AB23F49FB688D
:1042F00031F823309BB21BB2D31A642202FB03F2C3
:10430000FB68013339499B000B445B889BB219B2AF
:104310003648FB689B0003445B889BB21BB2CB1AF8
:1043200092FBF3F2324B104698470346BB60B7F955
:1043300006202E49FB689B000B445B889BB21BB296
:10434000D21A2B4B1046984702462B4B1046B968A1
:10435000984703461A46294B104629499847034671
:104360001C46224AFB6832F823309BB21AB2204B1B
:10437000104698470246234B20461146984703466D
:104380001A461C4B1A602DE0184B5B889BB2B7F99C
:1043900006201BB29A420ADA144B1B889BB21AB24F
:1043A000134B104698470246174B1A6013E00F4B09
:1043B000B3F866309BB2B7F906201BB29A420ADD09
:1043C0000A4BB3F864309BB21AB2094B10469847B7
:1043D00002460D4B1A60FB680133FB60FB68192B2A
:1043E0007FF74EAF1437BD4690BD00BF5402072083
:1043F000B1680A008417072059690A00C16A0A00D7
:104400000000C84249670A007021072080B584B0C7
:1044100000AF0346FB800023FB6077E03E4AFB6869
:104420009B0013445B889BB2B7F906201BB29A42EB
:104430000CD1394AFB6832F823309BB21AB2374BA1
:10444000104698470246364B1A6062E0324AFB68D3
:104450009B0013445B889BB2B7F906201BB29A42BB
:1044600051DDFB6801332C4A9B0013445B889BB2EF
:10447000B7F906201BB29A4245DAFB680133264A97
:1044800032F823309BB21AB22349FB6831F823304B
:104490009BB21BB2D31A642202FB03F2FB68013306
:1044A0001D499B000B445B889BB219B21A48FB68FC
:1044B0009B0003445B889BB21BB2CB1A92FBF3F3C5
:1044C0007B81B7F90A20B7F906101348FB689B00F7
:1044D00003445B889BB21BB2CB1A03FB02F3114A65
:1044E00082FB03125211DB17D21A0B49FB6831F819
:1044F00023309BB21BB21A44084B10469847024621
:10450000074B1A6005E0FB680133FB60FB681A2B60
:1045100084DD1037BD4680BDF4020720B1680A0073
:10452000881707201F85EB5180B584B000AF034684
:10453000FB800023FB6077E03E4AFB689B0013444E
:104540005B889BB2B7F906201BB29A420CD1394A5C
:10455000FB6832F823309BB21AB2374B10469847AB
:104560000246364B1A6062E0324AFB689B001344F5
:104570005B889BB2B7F906201BB29A4251DDFB68FB
:1045800001332C4A9B0013445B889BB2B7F9062089
:104590001BB29A4245DAFB680133264A32F82330CF
:1045A0009BB21AB22349FB6831F823309BB21BB28D
:1045B000D31A642202FB03F2FB6801331D499B00FE
:1045C0000B445B889BB219B21A48FB689B000344FA
:1045D0005B889BB21BB2CB1A92FBF3F37B81B7F9DA
:1045E0000A20B7F906101348FB689B0003445B8858
:1045F0009BB21BB2CB1A03FB02F3114A82FB0312DC
:104600005211DB17D21A0B49FB6831F823309BB2E9
:104610001BB21A44084B104698470246074B1A60D3
:1046200005E0FB680133FB60FB681A2B84DD103763
:10463000BD4680BD60030720B1680A008C170720C3
:104640001F85EB5180B584B000AF0346FB8000238B
:10465000FB6077E03E4AFB689B0013445B889BB29B
:10466000B7F906201BB29A420CD1394AFB6832F8DE
:1046700023309BB21AB2374B104698470246364B4E
:104680001A6062E0324AFB689B0013445B889BB26D
:10469000B7F906201BB29A4251DDFB6801332C4A60
:1046A0009B0013445B889BB2B7F906201BB29A4269
:1046B00045DAFB680133264A32F823309BB21AB23E
:1046C0002349FB6831F823309BB21BB2D31A642212
:1046D00002FB03F2FB6801331D499B000B445B881E
:1046E0009BB219B21A48FB689B0003445B889BB2DB
:1046F0001BB2CB1A92FBF3F37B81B7F90A20B7F90F
:1047000006101348FB689B0003445B889BB21BB2F6
:10471000CB1A03FB02F3114A82FB03125211DB177F
:10472000D21A0F49FB6831F823309BB21BB21A44EE
:10473000084B104698470246074B1A6005E0FB6895
:104740000133FB60FB68312B84DD1037BD4680BD33
:10475000CC030720B1680A00901707201F85EB5192
:10476000A417072090B587B000AF78604FF0000322
:104770003B617B683B614FF00003FB6000237B6182
:104780008FE04B4A7B6932F823309BB21A46494B83
:10479000104698470246484B1046396998470346E9
:1047A000002B0CD0424A7B699B0013445B889AB271
:1047B000424B104698470246414B1A606EE03C4A15
:1047C0007B6932F823309BB21A463A4B1046984721
:1047D00002463C4B1046396998470346002B5DD092
:1047E0007B690133324A32F823309BB21A46314B8F
:1047F000104698470246344B10463969984703469D
:10480000002B4BD07B690133294A9B0013445B8802
:104810009BB21946264A7B699B0013445B889BB276
:10482000CA1A7B690133224931F823309BB21846FA
:104830001F497B6931F823309BB2C31A92FBF3F214
:104840001C4B104698470346FB60194A7B6932F8B7
:1048500023309BB21A46174B1046984702461B4B13
:1048600038691146984703461A46194B1046F968AD
:10487000984703461C460E4A7B699B0013445B889D
:104880009BB21A460B4B104698470246114B2046E6
:104890001146984703461A46094B1A607B69013353
:1048A0007B617B69312B7FF76CAF1C37BD4690BDB8
:1048B0006C180720B1680A00816C0A00A9680A0018
:1048C0009C170720956C0A00D16C0A0045670A0006
:1048D00059690A0049670A0090B587B000AF0346DE
:1048E000FB80B7F90620514B1046984703463B61C1
:1048F0000023FB8292E0FB8A4D4A32F823309BB2C0
:104900001A464A4B1046984702464A4B10463969A8
:1049100098470346002B0AD0FB8A454A9B00134464
:104920005B889BB2BB60444ABB6813607AE0FB8A39
:104930003F4A32F823309BB21A463C4B1046984708
:1049400002463E4B1046396998470346002B62D019
:10495000FB8A0133364A32F823309BB21A46334B76
:10496000104698470246364B104639699847034629
:10497000002B50D0FB8A01332D4A9B0013445B88E7
:104980009BB21946FB8A2A4A9B0013445B889BB260
:10499000CA1AFB8A0133264931F823309BB21846E4
:1049A000FB8A234931F823309BB2C31A92FBF3F2FE
:1049B0001E4B104698470346FB60FB8A1C4A32F8A0
:1049C00023309BB21A46194B1046984702461D4B9E
:1049D00038691146984703461A461B4B1046F9683A
:1049E000984703461C46FB8A114A9B0013445B8888
:1049F0009BB21A460D4B104698470246134B204671
:104A00001146984703461A46114B104698470246EE
:104A1000094B1A6006E0FB8A0133FB82FB8A0D2BEF
:104A20007FF669AF1C37BD4690BD00BFB1680A0074
:104A3000BC020720816C0A00A0170720956C0A00B1
:104A4000D16C0A0045670A0059690A0049670A00E3
:104A5000316D0A0080B400AF204B4FF4FA725A61F6
:104A60001E4B4FF4B9729A611C4B8722DA621B4BC2
:104A70004FF4C872DA63194B40F277121A66174B7B
:104A800040F26D121A66154B9622C3F88C20134B18
:104A90000022C3F88820114B4FF4C872C3F8942049
:104AA0000E4B0022C3F890200C4B4FF4C8725A678B
:104AB0000A4B00221A67094B32221A66074B002262
:104AC0005A66064B00225A63044BF0225A650023B3
:104AD0001846BD465DF8047B704700BF5C26072082
:104AE00080B592B000AF0346FB71042387F84730CE
:104AF000512387F8463007F10C0300221A60043373
:104B000000221A60043300221A60043300221A6063
:104B1000043300221A60043300221A600433002296
:104B20001A60043300221A60043300221A6004332E
:104B300000221A60043300221A60043300221A6033
:104B4000043300221A800233FB790E2B07D03B2B53
:104B500000F077840D2B00F0898300F073BCCB4B01
:104B60001B7E002B00F08183C84B1B79013B212B5E
:104B700000F27A8301A252F823F000BF054C08002E
:104B80003D4C0800E94C0800114D0800695208002E
:104B90006952080069520800695208006952080009
:104BA00069520800695208006952080069520800F9
:104BB00069520800695208006952080069520800E9
:104BC000814D0800695208006952080069520800C6
:104BD00069520800695208006952080069520800C9
:104BE00069520800695208006952080069520800B9
:104BF000754C0800695208009D4C0800C54C08001F
:104C0000494D0800162387F8463001233B7307F10E
:104C10000C030133012019469D4B9847034687F842
:104C2000473097F8462007F10C0310461946022238
:104C3000984B9847034687F8473016E3162387F8C2
:104C4000463002233B7307F10C030133022019465F
:104C50008F4B9847034687F8473097F8462007F16F
:104C60000C031046194602228A4B9847034687F8E0
:104C70004730FAE2162387F8463020233B7300239F
:104C80007B7397F8462007F10C0310461946022261
:104C9000804B9847034687F84730E6E2162387F8AB
:104CA000463021233B7300237B7397F8462007F19E
:104CB0000C03104619460222764B9847034687F8A4
:104CC0004730D2E2162387F8463023233B7397F808
:104CD000462007F10C031046194602226D4B9847F7
:104CE000034687F84730C0E2162387F8463003238F
:104CF0003B7300237B7397F8462007F10C031046A3
:104D000019460222634B9847034687F84730ACE2C6
:104D1000162387F8463004233B7307F10C03013355
:104D2000042019465A4B9847034687F8473097F8AE
:104D3000462007F10C03104619460222554B9847AE
:104D4000034687F8473090E2162387F8463022233F
:104D50003B7307F10C030133042019464C4B984771
:104D6000034687F8473097F8462007F10C031046B2
:104D700019460222474B9847034687F8473074E2AA
:104D8000162387F8463012233B73404B5B79252B63
:104D900021D83E4B5B797B737B7B1A463E4B53F8A5
:104DA00022303B6497F84030BB7397F84130FB7377
:104DB00097F842303B7497F843307B7497F846205D
:104DC00007F10C03104619460622324B984703465A
:104DD00087F8473047E22D4B5B792D2B00F2438259
:104DE0002A4B5B797B73294B5B79263B072B00F2BF
:104DF000398201A252F823F0194E0800174F08001B
:104E0000655208009D4E08008B4F0800ED510800C8
:104E10006F510800FD4F08001F4B5B693B6497F81A
:104E20004030BB7397F84130FB7397F842303B74C6
:104E300097F843307B74184B9B693B6497F840307C
:104E4000BB7497F84130FB7497F842303B7597F884
:104E500043307B75104BDB6A3B6497F84030BB7581
:104E600097F84130FB7597F842303B7697F843301E
:104E70007B7697F8462007F10C03104619460E2260
:104E8000044B9847034687F84730ECE1F0230720AE
:104E900045A5090051BA09005C260720D14BD3F87B
:104EA00088303B6497F84030BB7397F84130FB7310
:104EB00097F842303B7497F843307B74C94BD3F872
:104EC0008C303B6497F84030BB7497F84130FB74EA
:104ED00097F842303B7597F843307B75C14BD3F858
:104EE000A4303B6497F84030BB7597F84130FB75B0
:104EF00097F842303B7697F843307B7697F8462018
:104F000007F10C03104619460E22B74B984703468B
:104F100087F84730A7E1B34B5B6E3B6497F84030AE
:104F2000BB7397F84130FB7397F842303B7497F8A6
:104F300043307B74AB4B1B6E3B6497F84030BB74C3
:104F400097F84130FB7497F842303B7597F843303F
:104F50007B75A44B9B693B6497F84030BB7597F811
:104F60004130FB7597F842303B7697F843307B76BB
:104F700097F8462007F10C03104619460E229A4B6B
:104F80009847034687F847306DE1964B9B6E3B642C
:104F900097F84030BB7397F84130FB7397F8423075
:104FA0003B7497F843307B748E4BDB6E3B6497F811
:104FB0004030BB7497F84130FB7497F842303B7532
:104FC00097F843307B75C8233B6497F84030BB7536
:104FD00097F84130FB7597F842303B7697F84330AD
:104FE0007B7697F8462007F10C03104619460E22EF
:104FF0007D4B9847034687F8473034E1794BDB6AAD
:105000003B6497F84030BB7397F84130FB7397F8D7
:1050100042303B7497F843307B74724B9B693B641E
:1050200097F84030BB7497F84130FB7497F84230E2
:105030003B7597F843307B756A4B5B693B6497F827
:105040004030BB7597F84130FB7597F842303B769E
:1050500097F843307B76634B5B6B3B6497F840304B
:10506000BB7697F84130FB7697F842303B7797F85C
:1050700043307B775B4B1B6B3B6497F84030BB77CF
:1050800097F84130FB7797F8423087F8203097F84F
:10509000433087F82130534B1B6D3B6497F8403009
:1050A00087F8223097F8413087F8233097F842305C
:1050B00087F8243097F8433087F82530494BDB6D6B
:1050C0003B6497F8403087F8263097F8413087F8EE
:1050D000273097F8423087F8283097F8433087F820
:1050E0002930404B5B6D3B6497F8403087F82A309D
:1050F00097F8413087F82B3097F8423087F82C30FA
:1051000097F8433087F82D30364BDB693B6497F8CE
:10511000403087F82E3097F8413087F82F3097F8D5
:10512000423087F8303097F8433087F831302D4BD4
:105130009B6B3B6497F8403087F8323097F84130EA
:1051400087F8333097F8423087F8343097F8433097
:1051500087F8353097F8462007F10C0310461946BA
:105160002A22214B9847034687F847307BE01D4BA6
:105170001B6F3B6497F84030BB7397F84130FB736B
:1051800097F842303B7497F843307B74154B5B6F54
:105190003B6497F84030BB7497F84130FB7497F844
:1051A00042303B7597F843307B754FF4C8733B64CE
:1051B00097F84030BB7597F84130FB7597F842304F
:1051C0003B7697F843307B7697F8462007F10C033F
:1051D000104619460E22044B9847034687F847307D
:1051E00041E000BF5C26072051BA0900984BD3F874
:1051F00090303B6497F84030BB7397F84130FB73B5
:1052000097F842303B7497F843307B74904BD3F857
:1052100094303B6497F84030BB7497F84130FB748E
:1052200097F842303B7597F843307B754FF4FA732B
:105230003B6497F84030BB7597F84130FB7597F8A1
:1052400042303B7697F843307B7697F8462007F15B
:105250000C03104619460E227E4B9847034687F8EA
:10526000473000E000BF00E000BFEBE07A4B1B7E60
:10527000002B00F0E580784B1B79122B00D0DFE08B
:10528000754B5B79252B18D8734B5B797B73724B0D
:105290009B7987F84030704BDB7987F841306E4B53
:1052A0001B7A87F842306C4B5B7A87F843307B7B04
:1052B00019463B6C664A42F82130674B5B79053BE7
:1052C000202B00F2BB8001A252F823F051530800BA
:1052D000595308003D5408003D5408003D5408004F
:1052E0003D540800615308006953080079530800D1
:1052F0003D5408003D5408003D5408003D5408004A
:105300003D5408003D5408003D54080081530800F6
:105310003D5408003D540800895308009953080083
:10532000A9530800B9530800C9530800D95308000D
:105330003D5408003D5408003D5408003D54080009
:10534000F1530800035408001554080025540800C0
:105350003B6C3F4A536172E03B6C3D4A93616EE0A7
:105360003B6C3B4AD3626AE03B6C3C4AA2FB0323A2
:10537000DB08374A136362E03B6C354A53635EE0F7
:105380003B6C334A53655AE03A6C354B10469847AC
:105390000246344B9A6452E03A6C314B10469847BF
:1053A0000246304BDA644AE03A6C2D4B104698477F
:1053B00002462C4B5A6342E03A6C294B1046984700
:1053C0000246284B1A633AE03A6C254B1046984740
:1053D0000246244B5A6132E03B6C234AA2FB032372
:1053E0005A091F4B1046984702461E4B1A6126E089
:1053F0003B6C1A4AA2FB0323DB089AB2194B1A80B2
:105400001DE03B6C154AA2FB0323DB089AB2154B47
:105410005A8014E03A6C124B104698470246114BE2
:10542000DA600CE03B6C104AA2FB03235A090C4BD8
:105430001046984702460B4B9A6000E000BF00BF41
:1054400000E000BF002318464837BD4680BD00BFBE
:105450005C26072051BA0900F0230720CDCCCCCC24
:10546000A9680A00042107201F85EB5180B400AF12
:105470002B4B00221A602B4B00221A602A4B002271
:105480001A602A4B00221A60294B00221A60294B0D
:1054900000221A70284B00221A70284B00221A8012
:1054A000274B00221A80274B00221A80264B00220D
:1054B0001A80264B00221A80254B00221A70254B99
:1054C00001221A70244B00221A60244B4FF0000274
:1054D0001A60234B4FF000021A60224B4FF000027B
:1054E0001A60214B4FF000021A60204B4FF000026F
:1054F0001A601F4B4FF000021A601E4B4FF0000263
:105500001A601D4B4FF000021A601C4B4FF0000256
:105510001A6000231846BD465DF8047B704700BF43
:10552000381907203C190720401907204419072083
:10553000481907204C1907204D1907207C21072006
:105540004E19072050190720782107207E210720B7
:1055500052190720531907205419072058190720FA
:105560005C190720601907206419072068190720B3
:105570006C19072070190720741907207819072063
:1055800080B598B000AF0346FB71002387F84F3019
:10559000002387F85F30002387F85E30002387F808
:1055A0004E30002387F84D300023A7F85C300023ED
:1055B0007B640023BB64512387F85B30002387F8AA
:1055C0005A300023A7F85830002387F838300023DA
:1055D00087F83930002387F83A30002387F83B30CA
:1055E000002387F83C30FA7907F14F03104619463B
:1055F000B74B9847034687F8573097F84F30113B21
:105600004B2B00F2A38101A252F823F04D59080060
:105610004D5908003D5708004D5908004D590800E4
:105620004D5908004D5908004D5908004D590800C2
:105630004D5908004D5908004D59080033580800CD
:10564000035808001B5808005557080095570800D4
:10565000F95708004B5708004D5908004D590800EC
:105660004D5908004D5908004D5908004D59080082
:105670004D5908004D5908004D5908004D59080072
:105680004D5908004D5908004D5908004D59080062
:105690004D5908004D5908004D5908004D59080052
:1056A0004D5908004D5908004D5908004D59080042
:1056B0004D5908004D5908004D5908004D59080032
:1056C0004D5908004D5908004D5908004D59080022
:1056D0004D5908004D5908004D5908004D59080012
:1056E0004D5908004D5908004D5908004D59080002
:1056F0004D5908004D5908004D5908004D590800F2
:105700004D5908004D5908004D5908004D590800E1
:105710004D5908004D5908004D5908004D590800D1
:105720004D5908004D5908004D5908004D590800C1
:105730004D59080071580800F15808000220654BC7
:105740009847034687F8573001E107200021624B54
:105750009847FCE0614B1B7E002B1AD05F4B1B79F6
:1057600087F834305D4B5B7987F835305B4B9B793C
:1057700087F83630594BDB7987F83730BB8E1A46BD
:10578000574BDA61564BDB6906201946524B984756
:10579000DDE0DCE0514B1B7E002B2CD04F4B5B79C6
:1057A00087F830304D4B9B7987F831304B4BDB79A4
:1057B00087F83230494B1B7A87F83330474B1B79D7
:1057C000012B04D101200021434B984713E0434BA8
:1057D0001B79022B04D1042000213F4B98470AE09B
:1057E0003E4B1B79002B06D13D4BDB690A20194645
:1057F000394B9847ABE0AAE009200021364B984787
:10580000A5E002200021374B984701200121364BAB
:105810009847034687F8573099E004200021314B20
:10582000984701200021304B9847034687F85730AE
:105830008DE02A4B1B7E002B19D0284B1B7987F853
:105840002C30264B5B7987F82D30244B9B7987F8D9
:105850002E30224BDB7987F82F30BB8D0120194683
:10586000204B9847BB8D1A461D4BDA656FE06EE002
:105870001B4BDB6BB3F5E17F28D8194BDB6B0A338D
:10588000174AD363164BDB6B01201946154B98471B
:105890000F2387F83830124BDB6B3B6497F84030AE
:1058A00087F8393097F8413087F83A3097F8423026
:1058B00087F83B3097F8433087F83C3007F13803DE
:1058C0002A2019460522094B984740E03FE000BFD7
:1058D000656808000D3308000D3A0900F023072021
:1058E0005C26072005330900612E080051BA090023
:1058F000BB4BDB6B632B28D9B94BDB6B0A3BB84A3C
:10590000D363B74BDB6B01201946B64B98470F2387
:1059100087F83830B24BDB6B3B6497F8403087F840
:10592000393097F8413087F83A3097F8423087F8A5
:105930003B3097F8433087F83C3007F138032A2092
:1059400019460522A84B984701E000E000BF97F8F0
:105950004F30132B15D10C20A44B9847034687F8E2
:1059600057300E20A14B9847034687F857300D203B
:105970009E4B9847034687F857309D4B1A789D4BAE
:105980001A709B4B1B780A2B00F2608701A252F819
:1059900023F000BFC15908004D680800255C0800CD
:1059A000A35C0800795E0800555E08005965080090
:1059B00029630800AB620800A96308004564080079
:1059C00097F84F30023B142B00F2298101A252F8C4
:1059D00023F000BF295A0800775A08001F5C08000E
:1059E0000D5C08001F5C08001F5C08001F5C0800BD
:1059F0001F5C08001F5C08001F5C08001F5C08009B
:105A00001F5C08001F5C08001F5C08001F5C08008A
:105A10001F5C08001F5C08001F5C08001F5C08007A
:105A20001F5C0800135C0800734B1B7E002B21D009
:105A3000714B1B79042B00D01CE0162387F85B30D8
:105A4000042387F8443007F1440301330420194646
:105A50006A4B9847034687F8573097F85B2007F161
:105A600044031046194602225F4B9847034687F8C5
:105A7000573000BFD4E0604B1B7E002B00F0AF809E
:105A80005D4B5B7987F828305B4B9B7987F8293031
:105A9000594BDB7987F82A30574B1B7A87F82B3024
:105AA000554B1B79053B202B00F2988001A252F840
:105AB00023F000BFDD5B0800DD5B0800DD5B080054
:105AC000DD5B0800DD5B0800DD5B0800DD5B0800D6
:105AD000DD5B0800DD5B0800DD5B0800DD5B0800C6
